:100000000C94DE060C9409070C9409070C9409075C
:100010000C9409070C9409070C9409070C94090720
:100020000C94F32F0C9409070C9409070C940907FE
:100030000C9409070C9467240C9409070C94090785
:100040000C9409070C9409070C9409070C940907F0
:100050000C94CA2F0C94A02F0C9409070C94090738
:100060000C9409070C9409070C9409070C940907D0
:100070000C9409070C9409070C9409070C940907C0
:100080000C9409070C9409070C9409070400040058
:10009000000407000400020000040000000000004B
:1000A0000004000000000404040404070404000425
:1000B000040000000000040707040000040002021E
:1000C0000404000404000404040400000404040004
:1000D0000203000002040000020200040000040009
:1000E00004040404000400040000000000000000F8
:1000F00001020102E600710E02010001380DD51265
:1001000003010001E5006815040400040C0DE3235D
:1001100005020002100DC71B060001000000B70E0B
:1001200007020002E600500F08020002100DCE1E6A
:1001300009010001E50034150A030003180DAE2281
:100140000B020002E3007A150C020002E3007D10AE
:100150000D00010000003C2F0E080008DB00A71571
:100160000F060006D5005F1910020002100DFD29D0
:1001700011020101330D300E12030003D2000521DC
:1001800013040004CE00C60E14010001E5002F1375
:1001900015050005C900631F16030003C600FE1500
:1001A00017040003120D3A0D18050005C100ED16E5
:1001B00019010001E5004D2A1A030002240D7821DF
:1001C0001B080008B90077111C020002E3002C2A6A
:1001D0001D050003B60050281E020002100DC020AD
:1001E0001F030002240D391C200400042D0D9B1B4D
:1001F00021040004200D371622030003C600110D50
:1002000023030002240DA61224030002240D3F281C
:10021000250001000000942F26060006B00097215B
:10022000270001000000392F28010001E5002D27DB
:10023000290400040C0DA3102A030003AD001524AB
:100240002B0001000000812F2C040003AA00661E71
:100250002D040004A600550F2E020002E3003717FC
:100260002F030103180D130E30030003260DE518AC
:1002700031030002240D551C32060006B0000E2189
:1002800033040003150DD82734020102E300450EA4
:1002900035050005A100D20C36020002E300411131
:1002A00037010001E5009B10380800089900711C17
:1002B00039050005940002283A030002240D640D5C
:1002C0003B0400039100F2283C020002100DF114DF
:1002D0003D030002240D09223E00010000004B13E3
:1002E0003F020002100D7F29400500058C00071F0A
:1002F00041020002100D910F42030003180D04107B
:10030000430400040C0D4529440001000000120EB6
:1003100045000500000078DA9D59696F1CB911FD90
:100320002BDC018C64035998E939A5C01FA49136D0
:1003300010D6B2B51E2B4E102C1AAD6ECE0CA1BE2F
:10034000B60F1D59E8BFE7158BD71CEB0562C01827
:10035000B2592C16AB5E5DD4EF83875EE559FC2461
:100360009B5655653B381F6CD2F45CFCF51FCBE502
:100370008F627A3A391D8A0755F69DCA5BFAFAE907
:100380005E5C9AE98F223A8D66A7D170341B8EA2EB
:10039000E9E06490564591941998FC3E48F2BC4AB5
:1003A000934EC695CA5A91567DD97D78970ECEA3A5
:1003B000E1098EEC3A9C1527E9A3C032BE07048BF5
:1003C000603DCBEC7A5DB5FA47951FDEF5A2EEF302
:1003D0003CEE6B4D3F8EFC86DF7AD9BC3A9610E03E
:1003E00091A81BD97671A7D2C796675D93946DA12A
:1003F000BAD81E2A5489FB1BF946B8472E93266E9D
:10040000B77D9755CFE5E07C46572BD76A03895EC9
:10041000F2F1646A8F686B15F310720C3D5599E424
:10042000D52656A5935E8B3D389F4E1C8D11D95213
:10043000F034F66A983A4AFD4D36BBBC76543089A2
:100440001C71A636AA4BF2B8EABBBD0D4F49DE4B74
:100450009A67729DF47917BB0F45F212677D93740A
:1004600000801633F2624A98B3ABEA1D5EE9CEE132
:10047000913F7C9B4D26F3C5D012376D6CCE96769E
:10048000904DDC68EA4633379ABB91CC935767337B
:1004900068C39B4045A93D0043E891AD0AA8D12F10
:1004A000200373F3A6D9DC6D2A6555AB1799EFE9E4
:1004B000244BBA246ED57FB175DB03E75D4CBA08D7
:1004C000A0D24A7C52652889675A3F1747F49CBEE0
:1004D000023E9E87D1F2B6DFD73BBE1C287EE4AD3C
:1004E0000E68EDA3671485AB0E9F87601476292EE6
:1004F000DACD87777F834346E39DBDCFAADB42F405
:1005000038B500C4C582B3BBF959E4CC983A33B6C8
:1005100069FEE8C62A73C3D7328D772D26D2228B87
:10052000F78D385E0427C8BAF698A6696CB095A90D
:10053000C60ED92D3531E3DC8BD86D655354708DE3
:100540003A974714102EC7DD6B2DD9453DAEBB221F
:10055000ED93C6D9AE79890FFC4A74EE2321A353DB
:10056000856458055C1ABABB5321749CC9871E70F8
:10057000AB6AD02DEC145C361A6B6C8BD1DC2E344C
:100580003241846B32D9D079845DC65864099E1B90
:10059000D5C9030A0295269C80932C64B39165FA11
:1005A0001A93A34288337C63AF8DB755210FC26184
:1005B0009B147588503377C170375C42761F29F8D9
:1005C000BE4EC98DDA6C6443B76809C0D0C068E21A
:1005D0000FD7C11842259D741A826C6B85E8089765
:1005E0008B5987226D520E3A27830DBC4D8B899B08
:1005F0008DCD5413419966B9AFC90E3808EB26DC8E
:10060000C42D4E8C0138174C69CCAA9E9CED91915B
:10061000152C99B7C818419F824951656AFD1AC3C4
:10062000DC8E5723B5070993132002AD1AA73AE3CE
:100630006D6CC65D7AFA16E7D2C47D4368CC7970DA
:100640003CA29BCA64D9E17051ADD73845FB904BB1
:100650000610CF46307D0DA7CFC93058E9EBCCEB63
:100660009A33E6B60F8E99820D1B652F8D1DCF94A0
:100670003876E836EC67B4FF134D854793897F7E63
:1006800086ACBCC1C6AD4C1F833C18CDAD0C7B798C
:10069000D0495057F0D8FDF3FD252676FFB190F1F3
:1006A00007354220E68E9464CAB1E6D7CB63A9D65B
:1006B000B1ABC294319BD92D7B19C3913B2540DC52
:1006C0008525A6B0E7321DDD9CBDDEC262AB931D61
:1006D0007E150C057CE964052CCDCD50EF6777DAEB
:1006E0003F0F5AC5294413DE61AF4E189CCF0F68E7
:1006F000F4057482732C77B21DC49FF1A652BE1804
:100700000910CF1DE255A319CFC64C64D5F1279926
:1007100013F7237129E579EC87B876AB1D95036152
:100720003A30D501FC5A065502C41CF92D6DB5EEC0
:100730009E9346867B0BD55636F81755AB8E65C013
:1007400003A6D32133D5F5E5DA2335707424304E72
:10075000AEDF0B5AB3D12ED5F1981591A6398DC6BF
:100760001419E1EF8A0A09171BA2A927D0019940A1
:10077000C9215BB8081EC473A8192C4D62DC51B5A1
:100780000E5B2EAA71E0815B99DDA4430ACA478003
:100790000D96234FD7850957D65563A23DFB9F9EE3
:1007A0003BE3CB975AC124416A198F1DA7BD5B0457
:1007B00044339880C3E031F7F4D09E4DDF6C12A72C
:1007C00066E5E26A19DF5EFC8B221E154A97F7ABDD
:1007D000F8EEE6D38A4A2534447797B393BBCB2906
:1007E000FECF07C162F7AC1797C393BBE5080BCBED
:1007F0008F9F973FC73F7DB9FE853439D4FF4E06A2
:10080000B7CB7B50255D2137C9285A4C6A50DE7D15
:10081000BBE5E3222ABABE5C2FAF6FFE791D7FBB1A
:10082000F974F5F91B3973441F57D75FF091C590E0
:100830008D4A723AEC0A875DD16158BDB9F8185FEC
:100840005EDC5F9192A3299DB5FA7AF17515AFEE42
:100850006F57BF6065754D07CCE8F3F55D7C75FD9E
:10086000F1E2DF83F3F7A337CAD03D8A065D76EA6B
:100870005ECDD4D134D4971A820620A7F9DDC57095
:1008800070FE9FE1C9E257887D49E3058F973406E2
:1008900060F4E48A26E81A16BFBEB10B186E5A7FC0
:1008A000C48DAA00451068500AC52A334A17DA38A1
:1008B0006B0EFD0CE98B9C30F62A6C999071AE5F43
:1008C00026A528AB4E006C821C56207670C0101AEC
:1008D00033E279AB3066DBB7A2067A7112B79B764A
:1008E0006FDF12316E3E12EBAA11B0C2DFED5CB5C4
:1008F000B49AE9EFFA93A91DB0F52F1DC559D4BBE1
:100900001B0884C232E9883A31622669A79E243BDB
:100910009B216E899420C7E8E7AF3A246BD69054A8
:1009200096C216C06E3F6CBEE4F659D449038B0BD9
:10093000D93455A3A3B05D68243243DBE91EF9A77F
:1009400004F7CD445709EDA9D4156907E32AF9A6A0
:1009500004D655266C97E99B5E4E1F5C0B5B2AD331
:10096000B7EBA6D37F031989921412B9873B08BB52
:1009700058544FD24A23A87FE2CACF2EBB6ECBF584
:10098000575C961EAC9B8AC59D4F1D822582020531
:1009900055EEDCF7D8AFD41659BFA5D220F84E815A
:1009A000A8AFBDC82D47294BB193FED3ADAA0D7793
:1009B000EADB6F931782E1C2EA8B4BB25B3492C9D8
:1009C000460A14D708F5D61EB4A05A024B8B5A25F6
:1009D000EB732AEEB199329E304147E35A3E4952B9
:1009E000343D28FCF1866DD2641ACB869AA2DC2DA8
:1009F0006957D70002A3669D57CFDC1A7E02881381
:100A0000C1D721EFD13E4A9572B80058F302A5A391
:100A100070419535E75A4E7F7AA92449FDE748C7CA
:100A20002607EEBAA936506601D113BADB1A490D72
:100A30005242D992FC924A952FD25C8AB0488E835A
:100A40006348D530030195EAD3952338D08E785684
:100A5000798E589F82DF4E37CC258DDFE934F49DA7
:100A60001DF410B48293B10DB50044A18ABEB0DF6D
:100A70002CF6A1CB95ED9E75610F66DA2D75887108
:100A8000EF3EC4D0F8695755629DE8DBF1CDE88DA3
:100A9000E46B08A923E1EC6C8F84B40A5EFA198038
:100AA0006BB0AF5A65C41C99B095BA85BC2FDBBE3C
:100AB000A66C28D9AD752CA54EEF5BD2A5DBACDAC0
:100AC000B0A27FE0825EBFB3A16AEECB4730A698AA
:100AD000C00D66F0BDF50BFE1985035255E6886121
:100AE0004F584E1E721B9ADCFDB96B1126B97371FB
:100AF000B7D7269D8BCF088EC8270F948FD7D429C0
:100B0000B73F7043A51FFE5C9C34CF811977152D2C
:100B1000353B2522006326C5B24694AB3F74E8D02E
:100B20008AC99386944975ED91CC4E066378D39328
:100B30008609A7EC3C543622F51C3C0550EE41F6E4
:100B40001D8F16D329B2D3899DCC749FC593D954D8
:100B50005B1F93D96C8EF1F8ED4D97D5358283E408
:100B6000F74D6EA1768AB396226299CABDBE6B41DB
:100B7000E630E4415585E1C8174098457E96ABE0E4
:100B80007D12CC42CE6038F50C77AA2A3D0998EA4E
:100B9000B9678B9DB0A0EBE5767A731D8EE2631D7D
:100BA000C962E41F5877762441A326F48AB92FBD81
:100BB000F3E8BEC31F3C778F26C89EA6ABD795A28D
:100BC000EEFE754209AE0B128B42EE44F4C38F6EFB
:100BD000FFBE27B4616006C1B5CF46FEC5A585F34B
:100BE000B90794F9DCBF57EC30DE56E80137874788
:100BF00084CF21D81E3C00C4161EBE2CE5B951CAB4
:100C0000C4F7F801A96BF6192EA7440A48060A1082
:100C1000FBB5135B651E76FEE65616057D9AEA3730
:100C2000507A7001198E0A9F9FE6D438F8E8E7A140
:100C300072EC94D16E4BF367978C74A9D774BAF6A3
:100C40009A9D71E1D77AC3B47D617EDADFD80091D5
:100C50006F52F63A187EC14001395FEC79F1EE75BA
:100C60008F02B7E728CB7F5118FBB6E6507E6A6843
:100C7000B4EC6761A7E2919026AE6D3AFAE8158070
:100C80007CA1BB0F5DE46DD566AB91E83D608C1037
:100C900062FECC8252FE69787A763A7A3F1F47EF3D
:100CA00037F3F57C384927F3C1DBFF0033719679C0
:100CB0009A09000000010203040506072000230032
:100CC000260029000B47004400450080010C480025
:100CD0004400450020011D88008000810080001C28
:100CE0008A008000810020001FB300B000B10080A6
:100CF000031EB400B000B10020030E9800900091D4
:100D00000080000F9A009000910020000400000075
:100D100004040404070402070400000400000202A3
:100D20000400000404070400020404040004040096
:100D30000404010704000204000000000000000693
:100D40000002025B17040C0D5A0A02100D594002F2
:100D5000240D584003120D574003150D5612031869
:100D60000D5518051B0D544002240D531404200D7D
:100D7000524002240D511003260D501104290D4F2D
:100D800011042D0D4E0D02310D4D0B01380D4C404F
:100D900001330D4B1204340D4A0B01380D4910027A
:100DA000390D4815033B0D0040023E0D470E024031
:100DB0000D460901420D45060000000011241FBE2A
:100DC000CFEFD0E4DEBFCDBF14BE0FB6F894A89528
:100DD00080916000886180936000109260000FBE77
:100DE00011E0A0E0B1E0E4E5F1E600E00BBF02C0F5
:100DF00007900D92A432B107D9F722E0A4E2B1E046
:100E000001C01D92A139B207E1F70E947F250C9421
:100E1000A8300C940000CF93DF93CDB7DEB7659771
:100E20000FB6F894DEBF0FBECDBF0E946C256B01DC
:100E30007C0180916D01882309F419C40E946C25FE
:100E4000C61AD70AE80AF90AF89480916D01882336
:100E500051F08FEF80936D0178940000F8948091A9
:100E60006D018111F9CF78940E946C25A70196013C
:100E7000260F371F481F591F288B398B4A8B5B8BD6
:100E800081E080936D0180914001882309F440C086
:100E9000109240018FEF89838E010F5F1F4F68E62C
:100EA00075E1C8010E947A137C01892B89F1D70171
:100EB00056968C9182FFF3CF0E946C25F894F7012F
:100EC00037892689422F4B7F468B78949F938F9347
:100ED0007F936F931F923F9321701F922F9389816D
:100EE0001F928F932AE73DE03F932F930E94A52AFC
:100EF0008DB79EB70C960FB6F8949EBF0FBE8DBFF0
:100F000068E675E1C8010E947A137C01892B79F6A5
:100F100080914101882311F1109241018FEF898363
:100F20008E010F5F1F4F61E471E1C8010E947A13C7
:100F3000FC01892B99F0958D868D9813F4CFF89448
:100F4000858D968D891709F4E6C3789461E471E183
:100F5000C8010E947A13FC01892B69F78091310145
:100F6000882309F454C0109231018FEF8B876FE012
:100F7000B62E61E17DE0CE010B960E947A131C0132
:100F8000892B09F444C0D10157968C91579780FF63
:100F9000F0CFF894F101448055806680778087898E
:100FA0008E7F878B789456968C91813009F40BC391
:100FB00008F4E3C2823009F4A0C28330D1F6AB84D6
:100FC00019861A869E01275F3F4F42E061E0F101DA
:100FD000848995890E94C71189849A8498248924D8
:100FE0009824740100E010E0B101605F7F4FC12CD4
:100FF000A3019201C1010C960E94740D82FEB9CF2B
:1010000080914A018111B5CF8CE10E94322F8091ED
:101010004601882309F469C0109246018FEF8D8341
:1010200022E0422E3DE2532E48E0642E60EC70E256
:10103000CE0105960E947A138C01892B09F455C0C4
:10104000D80152968C9182FFF1CF80FF49C0BD80BC
:10105000C8010E94AD2CF801428A59826A820E941E
:101060006C25A62E972E882E792E9E012F5F3F4F3E
:1010700042E060E0D8011C968D919C911D970E94E2
:10108000C711F8940E946C256B017C01F8018085E2
:101090009185A285B3858C0D9D1DAE1DBF1D8483DA
:1010A0009583A683B783C8010E94E32C7894FF92AE
:1010B000EF92DF92CF927F928F929F92AF921F9288
:1010C000BF922CE53DE03F932F930E94A52A8DB758
:1010D0009EB70C960FB6F8949EBF0FBE8DBFA6CFDD
:1010E0006D81C8010E942822A1CF809144018823EC
:1010F00001F1109244018FEF89838E010F5F1F4F22
:1011000067EC7BE1C8010E947A13009791F0DC0143
:1011100058962C912F3FA1F7F894FC0126852111B8
:1011200086C2789467EC7BE1C8010E947A1300972D
:1011300071F780914501882309F440C01092450160
:101140008FEF89838E010F5F1F4F9DE4E92E9DE095
:10115000F92E67E07FE1C8010E947A13009771F1D0
:10116000DC011E962C911E9723FFF3CFF894FC010F
:101170002685277F268778949C01265E3F4F3F93E4
:101180002F9350968C918695869586951F928F9376
:1011900089811F928F93FF92EF920E94A52AEDB74B
:1011A000FEB738960FB6F894FEBF0FBEEDBF67E0EE
:1011B0007FE1C8010E947A13009791F68091470160
:1011C000882309F44BC0109247018FEF89838E0169
:1011D0000F5F1F4F83E4E82E8DE0F82E65E174E287
:1011E000C8010E947A13FC01892BC1F1848D80FF14
:1011F000F5CFF8949481258136814781548965899A
:101200007689A789B08DD18CC28CB38C848D8E7F6A
:10121000848F7894BF92CF92DF92BF93AF937F93E6
:101220006F935F934F933F932F939F9389811F9267
:101230008F93FF92EF920E94A52A2DB73EB7205FB1
:101240003F4F0FB6F8943EBF0FBE2DBF65E174E26D
:10125000C8010E947A13FC01892B41F6A895809160
:101260006C01882329F080E48093600010926C0167
:1012700010912E02112309F46DC00091240100FD8C
:1012800012C0153008F466C0D0906E01FD2C8BEFB3
:101290008D0D8C3308F412C2EEE7FE1609F45DC220
:1012A000016000932401412F50E06EE770E08EE66C
:1012B00091E00E947930009739F00E7F009324016D
:1012C0008E56914011E0180F01FD0CC0902F9260D6
:1012D0009093240181E193E09F938F930E94A52A2C
:1012E0000F900F90D12ECC24CA9480E00D2D10E0E9
:1012F00018C090E04E2D50E0481B590BB801680F04
:10130000791F62597E4F82599E4F0E948F301092F2
:101310006D018E2D9FB7F89420912E02F21661F088
:101320009FBFF0902E02EF2CED1819F79FB7F8949D
:1013300020912E02F212F4CFE0922E029FBFF1E034
:10134000CF1208C081E193E09F938F930E94A52A5A
:101350000F900F900E946C256B017C0128893989C0
:101360004A895B89621B730B840B950B80902D015E
:1013700090902E01A0902F01B09030013FEF831A82
:10138000930AA30AB30A80922D0190922E01A09293
:101390002F01B09230014090290150902A016090B5
:1013A0002B0170902C01460E571E681E791E40922C
:1013B000290150922A0160922B0170922C01611533
:1013C000710541E08407910508F056C19B01AC010D
:1013D0000E94FE2FDC01CB0181509F4FAF4FBF4FCA
:1013E000892F9A2FAB2FBB274091250150912601C1
:1013F0006091270170912801840F951FA61FB71FC8
:1014000084179507A607B70718F48FEF9FEFDC0145
:101410008093250190932601A0932701B093280182
:10142000409168015091690160916A0170916B016E
:101430005C546B437B4F2F2DC416D506E606270B55
:1014400027FDF7CCBF93AF939F938F937F926F92BB
:101450005F924F92BF92AF929F928F9282EA9DE0ED
:101460009F938F930E94A52A8DB79EB70E960FB6B5
:10147000F8949EBF0FBE8DBF809168019091690165
:10148000A0916A01B0916B01C816D906EA06FB0665
:1014900098F48091640190916501A0916601B091EA
:1014A00067010196A11DB11D8093640190936501B0
:1014B000A0936601B0936701C0926801D092690160
:1014C000E0926A01F0926B011092250110922601C0
:1014D00010922701109228011092290110922A01DE
:1014E00010922B0110922C0110922D0110922E01BE
:1014F00010922F01109230019CCCAB8481E0898343
:101500001A821B821C829E012F5F3F4F43E061E0E5
:10151000848995890E94C71169817A818B819C8118
:101520000E940E30272F382F492F55272C873D87B3
:101530004E875F8737E039831A829E012F5F3F4FC6
:1015400042E061E0D10154968D919C9155970E94A3
:10155000C711EC84FD840E851F8500271127B1017A
:10156000605F7F4FCA80A3019201C1010C960E9467
:10157000740DBC85B0FFFDCC43CDAB841D821E82B3
:101580001F8218869E012B5F3F4F44E061E0F1010E
:10159000848995890E94C7116D817E818F8198858C
:1015A0000E940E30D62EF72EB101605F7F4FC12C06
:1015B000ED2C8C01A3019201C1010C960E94740DC7
:1015C000D2FED7CC1DCDAB84FCE0F9831A821B82FE
:1015D0001C829E012F5F3F4F44E061E0D101549691
:1015E0008D919C9155970E94C71169817A818B8159
:1015F0009C810E940E306B017C01B9821A829E018F
:101600002F5F3F4F42E061E0F101848995890E949C
:10161000C711870176011127B101605F7F4FCA8032
:10162000A3019201C1010C960E94740DA2CC318DD0
:10163000308F7894AC01415F5F4F5F934F931F925F
:101640002F93FC0187891F928F9389811F928F931B
:1016500022E53DE03F932F930E94A52A8DB79EB7C8
:101660000A960FB6F8949EBF0FBE8DBF49CDC88AAB
:10167000D98AEA8AFB8A04CC6115710550E1850795
:10168000910508F0C2CE8B019C0101501F4F2F4FD6
:101690003F4F5527432F322F212F0E94FE2FDC0171
:1016A000CB01409125015091260160912701709155
:1016B0002801840F951FA61FB71FA2CEE0906F01CF
:1016C0008E2D807F803109F0E7CD1D1508F442CEC4
:1016D0008D2D90E0FC01E359FE4F20812E3709F05B
:1016E000DBCDAC0145595E4F1A01FC01E459FE4FB8
:1016F0009081DA018C91292F30E05901B82A6DEFE1
:101700006D0D8EE691E00E948225A816B90639F18A
:10171000F0906E01C1CD5489658990892189328903
:1017200043898F5F858F78946F935F934F933F9337
:101730002F939F9389811F928F93A5E7BDE0BF935D
:10174000AF930E94A52A2DB73EB7265F3F4F0FB635
:10175000F8943EBF0FBE2DBFE6CB11E0C3CD802F66
:101760008D7F8093240180911B01E812FEC081E0EF
:101770008E0D8F70806180931B01B0E72B16B1E056
:101780003B0609F008F4BAC0E0E7F1E0ADB6BEB63A
:101790008F010F5F1F4F2081222309F4E3C0E0E196
:1017A000F3E08491281708F0DDC030E0220F331FEA
:1017B000220F331F220F331FF901E751FF4FE4912E
:1017C0004DB75EB784E0E89F4019510911240FB668
:1017D000F8945EBF0FBE4DBF8DB79EB70196F9015D
:1017E000E551FF4F4491F901E451FF4F6591749128
:1017F000FB01640F711DAC01BD86AC869D8B8C8B8B
:101800006E177F0709F47FC02016310638F1A491C6
:10181000A53038F1A73011F52801BFEF4B1A5B0A4C
:10182000D8016C908201060D111D20163106B0F012
:10183000862C912CA12CB12CDA018D929D92AD9227
:10184000BC921397612C712C14964D925D926D92FF
:101850007C921797485F5F4F3196D2CF87E00E9406
:10186000322F7A0194E0E90EF11C5801AFEFAA1A69
:10187000BA0AD8011C91912F9F77492E512C612CC7
:10188000712C012F0076003691F117FF3AC08501C7
:101890000F5F1F4FD80111978C91440C551C661C8B
:1018A000771C440C551C661C771C440C551C661C8C
:1018B000771C440C551C661C771C440C551C661C7C
:1018C000771C440C551C661C771C440C551C661C6C
:1018D000771C982F9F77492A87FDDACFDA014D923E
:1018E0005D926D927C921397A701319689CFB0EEED
:1018F0004B2A55245A94652C762CC7CFCC24C394FC
:10190000F4CC8501EBCFAC84BD848C899D8940915A
:101910004A01442331F0F901E651FF4FE491E0FF21
:1019200011C022513F4FF90125913491F9010995D8
:101930000FB6F894BEBE0FBEADBE02151305F0F68D
:10194000F80124CF80914C011F928F93E1EBFDE0D1
:10195000FF93EF930E94A52A0FB6F894BEBE0FBE68
:10196000ADBEEBCF85E00E94322F1D2DB3CCFC0124
:1019700010926D0181E08093310187898160878BAE
:10198000448155816681778180859185A285B38563
:10199000840F951FA61FB71F84839583A683B783E3
:1019A00081E008950F931F93CF93DF938C0161E142
:1019B0007DE0FC0180810E94D025EC010E94AD2CCD
:1019C000F80184819581A681B7818C839D83AE8344
:1019D000BF8380859185A285B38588879987AA87EB
:1019E000BB87892B8A2B8B2B29F4DF91CF911F91F9
:1019F0000F91089584859585A685B7858C879D87E9
:101A0000AE87BF8780899189A289B389888B998B9A
:101A1000AA8BBB8BCE01DF91CF911F910F910C94BC
:101A2000E32CFF920F931F93CF93DF93EC01F88485
:101A300083E08F15E0F048E150E061E17DE08881CE
:101A40000E94A1258C0187EB9CE0F801938382839F
:101A50006DE770E18C810E94D025F801958B848B15
:101A6000F68ADF91CF911F910F91FF9008958EE13B
:101A70000E94322FCF92DF92FF920F931F93CF934A
:101A8000DF93EC016DE770E18C810E94D0256C0141
:101A9000F8840F2D10E0A8014D5F5F4F6AE37DE0F1
:101AA00088810E94A125FC01D182C082F2826C85CE
:101AB0007D85A8010396DF91CF911F910F91FF9033
:101AC000DF90CF900C948630CF93DF93EC016DE7DD
:101AD00070E188810E94D025288539854C8160E09D
:101AE000DF91CF910C94C7114F925F926F927F92CA
:101AF0008F929F92AF92CF92EF92FF920F931F938C
:101B0000CF93DF93EC014B01270138011F92CF9255
:101B10007F926F925F92EF925F934F933F932F93D9
:101B20001F92AF928BE69DE09F938F930E94A52A10
:101B30008DB79EB70E960FB6F8949EBF0FBE8DBFA1
:101B400088819981AA81BB81E816F9060A071B07DB
:101B500050F0F40180819181A281B3818E159F059F
:101B6000A007B10720F480914A01882379F0DF9122
:101B7000CF911F910F91FF90EF90CF90AF909F90DA
:101B80008F907F906F905F904F9008958DE10E94AD
:101B9000322F8BE10E94322F0F931F93FC01A489F7
:101BA000B58986898C9393A181E0892783A3448199
:101BB00055816681778180FF12C00085118522855D
:101BC0003385400F511F621F731F82FD12C0448373
:101BD00055836683778381E01F910F910895048573
:101BE000158526853785400F511F621F731F82FFA1
:101BF000EECF0089118922893389872F4017510739
:101C00006207830B87FDE3CF85E597E193838283AA
:101C1000B901A801448355836683778381E01F91CE
:101C20000F9108950895FC018081A481B5814085BC
:101C30005185628573859FB7F894813061F0823059
:101C400019F04C939FBF08954D935D936D937C93D2
:101C500013979FBF089511965C934E939FBF08956D
:101C6000FC0185818F9384818F9380811F928F9354
:101C70008EE89DE09F938F930E94A52A0F900F906E
:101C80000F900F900F900F900895DC012C911496F7
:101C9000ED91FC9115973FB7F8942130E9F022308F
:101CA000B1F0808190E0A0E0B0E03FBFBF93AF9380
:101CB0009F938F9389E89DE09F938F930E94A52A1D
:101CC0000F900F900F900F900F900F9008958081BC
:101CD0009181A281B381E9CF80819181A0E0B0E0C0
:101CE000E4CFCF92DF92EF92FF92FC0140815181CD
:101CF000628173812481E0EBFCE085919591A5914F
:101D0000B491481759076A077B0770F56A017B0190
:101D1000C20ED11CE11CF11C8C159D05AE05BF0542
:101D200000F5841B90E09A012A5E3C4F3F932F936D
:101D30009F938F937F936F935F934F9387EA9DE079
:101D40009F938F930E94A52A8DB79EB70A960FB6D0
:101D5000F8949EBF0FBE8DBFFF90EF90DF90CF90A5
:101D60000895822F90E0DFCF80E090E0DCCF80917B
:101D70004A01882329F0823011F010924A01089517
:101D800082E00E94322F8EE00E94322F0F931F9329
:101D9000CF93DF938C0165E57FE0DC018C910E949D
:101DA000D025EC010E944C26FC01D80114964D91DF
:101DB0005D916D917C911797428353836483758302
:101DC00018968D919C91199791878087892B09F49A
:101DD00064C0D8011C968D919C911D979783868332
:101DE0001286F8948AA1282F217081FB992790F9F7
:101DF000291729F091E08927928591609287982F81
:101E00009F7E2E853F85232B59F585FD19C09AA30A
:101E1000118210828A8D9B8D892BA9F1AC8DBD8D8D
:101E2000ED93FC93FD8FEC8FCE010E946916CE01DD
:101E30000E94E32C7894DF91CF911F910F91089528
:101E4000809142019091430191838083F0934301FB
:101E5000E09342017894DF91CF911F910F91089503
:101E60009AA3118210828A8D9B8D892B89F0AC8D6B
:101E7000BD8DED93FC93FD8FEC8F7894DF91CF9126
:101E80001F910F910895FD8FEC8FFB8FEA8FCCCFC0
:101E9000FD8FEC8FFB8FEA8FCDCF87E10E94322F31
:101EA000FC01648180810C9433240F931F93CF93A2
:101EB000DF938C0143E250E065E57FE0FC01808127
:101EC0000E94A125EC01F80184859585A685B7853A
:101ED000892B8A2B8B2B19F560E06AA3F80184818A
:101EE0000E943324688B798B8A8B60E0F8018085AF
:101EF0000E9433246B8B7C8B8D8B80E090E0A0E084
:101F0000B0EC8E8B9F8BA88FB98F6BE070E0CE0109
:101F10004A96DF91CF911F910F910C94322664E085
:101F2000DCCF8F929F92AF92BF92FF920F931F933D
:101F3000CF93DF938C016DEE76E1FC0180810E94EE
:101F4000D025EC010E94AD2C8F8D98A1892B09F032
:101F500058C0F80104811BA1FF24F394002339F138
:101F60006C897D898E894F2D0E94D61A21E001113E
:101F70001CC014FB882780F991E08927281741F0BD
:101F80008F89988DA98DBA8D892B8A2B8B2B89F4FB
:101F900010711F291BA3DF91CF911F910F91FF900B
:101FA000BF90AF909F908F90089520E0E2CFF12CEA
:101FB000D7CF0E946C258F88988CA98CBA8CDC01B5
:101FC000CB01880D991DAA1DBB1D888B998BAA8BEF
:101FD000BB8B8C839D83AE83BF8385E597E19B8319
:101FE0008A83107114601F291BA3CE01DF91CF914A
:101FF0001F910F91FF90BF90AF909F908F900C9486
:10200000E32C82E10E94322FCF92DF92EF92FF9277
:102010000F931F93CF93DF938C016DEE76E1DC017C
:102020008C910E94D025EC010E944C26FC01D80125
:102030001496CD90DD90ED90FC901797C282D382DC
:10204000E482F58218964D915D916D917C911B977C
:102050004683578360877187F894118210828F8D31
:1020600098A1892B81F0A9A1BAA1ED93FC93FAA3C1
:10207000E9A37894DF91CF911F910F91FF90EF909A
:10208000DF90CF900895FAA3E9A3F8A3EF8F8BA177
:1020900082FD25C0C88AD98AEA8AFB8A982F946073
:1020A0009BA381FD10C0CE010E94AD2CCC82DD82AD
:1020B000EE82FF8285E597E19B838A83CE010E94B1
:1020C000E32C7894D7CF4C815D816E817F81872FFF
:1020D0004C155D056E058F0987FFE5CFF2CF488966
:1020E00059896A897B89972F4C155D056E059F0973
:1020F00097FFD0CF83E10E94322F0F931F93CF938E
:10210000DF938C0146E050E06DE770E1FC018081D7
:102110000E94A125EC0161E0F80184810E94332432
:102120006A837B838C838D8181608D83DF91CF91E6
:102130001F910F91089546E050E06DE770E1FC01BA
:1021400080810C94A1258F929F92AF92BF92FF92B3
:102150000F931F93CF93DF93EC016DE770E18881BC
:102160000E94D0258C01F88483E08F1508F484C088
:10217000F8018581867009F07FC08C849D84AE84CF
:10218000BF848C819D81AE81BF81892B8A2B8B2B53
:1021900009F074C0EEEBFCE0A591B49111968C911E
:1021A00084FD04C060E08CE00E94332460E08FE096
:1021B0000E94332460E08DE00E94332460E08EE0D2
:1021C0000E949D1A80E58CBD1DBC8114F2E19F0622
:1021D000FAE7AF06B10408F041C0811489E098061F
:1021E0008DE3A806B10418F5E0E88E16E4E89E0633
:1021F000EEE1AE06B104C0F5F0E48F16F2E49F06FE
:10220000FFE0AF06B10468F580E2881681EA98061F
:1022100087E0A806B10458F590E0E0E98E16E0EDFD
:102220009E06E3E0AE06B10428F583E002C090E02C
:1022300080E0CF2DCC0FCC0FC065C82BF801C08338
:102240009183858184608583DF91CF911F910F9168
:10225000FF90BF90AF909F908F90089591E080E0A5
:10226000E8CF90E081E0E5CF91E081E0E2CF91E03E
:1022700082E0DFCF82E0DDCF0E94C90D8CE20E94B8
:10228000322FCF93DF93DC0114969C911497C0E01A
:10229000D0E0FE01EC54F34FE4919E1739F0219603
:1022A000C830D105B1F78BE20E94322F87E98093C5
:1022B0007A0030917E0081E090E00C2E01C0880F02
:1022C0000A94EAF7832B80937E004FE150E061E4AB
:1022D00071E18C910E94A125FC018DE694E193832C
:1022E0008283C28F81E0858FDF91CF9108950F9314
:1022F0001F93CF93DF938C0161E471E1FC01808136
:102300000E94D025EC010E94AD2C909100018A8D95
:10231000981303C08FEF80930001F80184819581A9
:10232000A681B781888B998BAA8BBB8B8C839D836D
:10233000AE83BF8380859185A285B3858C879D8779
:10234000AE87BF8784858E8F91E0980F9D8F4089DF
:10235000518962897389488759876A877B8724896D
:1023600035893F8B2E8B208D318D398F288F948D21
:102370009C8F811105C0DF91CF911F910F9108951E
:10238000CE01DF91CF911F910F910C94E32C8F928E
:102390009F92AF92BF92CF92DF92EF92FF920F93F4
:1023A0001F93CF93DF934C01E62E142F6901DC01BC
:1023B00015968C911597982F967009F462C081FD3F
:1023C0006DC0F401908181819CBD8DBDD4011596B5
:1023D0009C91159790FD71C091FF7AC0D401CD9169
:1023E000DC91AA24AA94A10E1123A9F1B12CBFEF6C
:1023F000AB1ABB0AAC0CBD1CF601F08008E010E083
:10240000898580FF7AC0EE81FF81888580834F2D8A
:1024100040786B817C818D810E94D61AFF0CEE8101
:10242000FF8188858083110FE881F98190818A81FD
:10243000892391E009F490E0192B015009F7EE206F
:1024400011F0D6011C93BFEFCB1ADB0ACA14DB04D0
:1024500099F6F401958190FF14C0D40112966D9104
:102460007D918C9141E0DF91CF911F910F91FF9071
:10247000EF90DF90CF90BF90AF909F908F900C9493
:10248000D61ADF91CF911F910F91FF90EF90DF90BF
:10249000CF90BF90AF909F908F900895ED91FC9159
:1024A000418542706681778180850E94D61AD40169
:1024B00015969C91159790FF8FCF12966D917D91F7
:1024C0008C9140E00E94D61AF401958191FD86CF4F
:1024D000EE2071F18FEF810F112309F4BCCFF601CB
:1024E00090819EBD0DB407FEFDCF9EB591938150A6
:1024F000B8F7D40115969C91AECF4F2D40786B81E3
:102500007C818D810E94D61AFF0CEE81FF81888527
:102510008083110FE881F98190818A81892391E07C
:1025200009F490E0192BEE81FF818885808385CFA7
:10253000F6019601210F311D2E173F0709F489CFAF
:1025400081918EBD0DB407FEFDCFF6CFFF920F93A4
:102550001F93CF93DF93EC0118816DE770E1812F1A
:102560000E94D0250C81F884C9852F2D3C2F402F47
:1025700061E00E94C711CF93FF921F920F931F92A9
:102580001F9380E79DE09F938F930E94A52A8DB7AC
:102590009EB708960FB6F8949EBF0FBE8DBFDF9111
:1025A000CF911F910F91FF9008950F931F93CF9399
:1025B000DF938C0180913A0190913B01892B09F0C6
:1025C0004BC06091390170E0623071052CF482E0FB
:1025D0008093390162E070E0E0913501F0913601BD
:1025E0004DB75EB741505F4F44275A959F01C0E0F9
:1025F000D0E0C901860F971F4817590730F121967F
:102600009C01C115A4E0DA07A1F78E1B9F0B0E9465
:10261000822AD0933B01C0933A0190933801809372
:1026200037010E94E825F80180819181A281B38160
:1026300080933C0190933D01A0933E01B0933F01F4
:10264000DF91CF911F910F910895209711F0C9014B
:10265000DCCF80E10E94322F8DE00E94322FCF9399
:102660002091330130913401232B91F4FC01C0817E
:102670008C2F90E0880F991F880F991F0E94822A43
:102680009093340180933301C0933201CF91089528
:102690008AE00E94322F80913A0190913B0121E023
:1026A00030914A01311101C020E01F922F939F9376
:1026B0008F9320913F012F9320913E012F932091E2
:1026C0003D012F9320913C012F9321E0892B09F4A8
:1026D00020E01F922F9383E99DE09F938F930E94A8
:1026E000A52A8DB79EB70C960FB6F8949EBF0FBE65
:1026F0008DBF0895CF93DF93EC0198814091320113
:10270000A0913301B09134010BC0FD0184E0989F8A
:10271000E00DF11D1124208131812617370741F08A
:102720009F5F941790F380E090E0DF91CF91089540
:10273000988382819381DF91CF9108951F93CF93E6
:10274000DF93EC01162FAC89BD891097B9F0129672
:10275000ED91FC9113978D919C9111979D8B8C8B92
:1027600011961C921E9213961C921E921297612F24
:10277000CD010995AC89BD89109749F710926D017B
:1027800081E080934001DF91CF911F910895FC017A
:102790003897968990FF08C0608D678B9A7F946008
:1027A000968BCF010E949E1380E00895FC018689DC
:1027B0008460868B10926D0181E08093400144819A
:1027C00055816681778180899189A289B389840F37
:1027D000951FA61FB71F84839583A683B78381E0C7
:1027E0000895FC01A085B1859C9182858923D1F053
:1027F000818D80958170C9F4838D815031F1838FF3
:10280000448155816681778187859089A189B289C4
:10281000840F951FA61FB71F84839583A683B78354
:1028200081E00895818D817039F38CE394E1938385
:10283000828383899489A589B68984839583A683B5
:10284000B783828D838F81E00895A789B08D5696D6
:102850009C915697892F817090FFE3CF648D579696
:102860006C9357979A7F946056969C935697CD0198
:102870000E949E1380E008950F931F93FC01A08592
:10288000B1859C91048115812681378143855485CA
:1028900065857685400F511F621F731F82858923CE
:1028A00061F0818D8095817059F0448355836683F2
:1028B000778381E01F910F910895818D8170A9F731
:1028C000438B548B658B768B81EF93E1938382836B
:1028D000CF011F910F910C94F113FC0180917A00AC
:1028E00086FF0EC084819581A681B7818853984F59
:1028F000AF4FBF4F84839583A683B78381E008954C
:10290000828D90910001981761F09F3F59F7809355
:1029100000018770806480937C0087ED80937A004B
:10292000E1CF8FEF80930001209178003091790002
:10293000858D968D891780F544895589240F351F1B
:102940008F5F358B248B858F891760F186899789F6
:1029500028173907C8F1808D918D82179307A0F150
:10296000138E10926D0181E080934101408951895D
:102970006289738980859185A285B385840F951FAF
:10298000A61FB71F808B918BA28BB38B84839583FB
:10299000A683B78381E0089581E0358B248B858FF2
:1029A0008917A0F644815581668177818485958554
:1029B000A685B785840F951FA61FB71F84839583AF
:1029C000A683B78381E00895838D8F5F838F948D75
:1029D000891738F280914A018111C2CF8AE10E94A1
:1029E000322FEF92FF921F93CF93DF937C01FC0174
:1029F000108168E675E1812F0E94D025EC01F894E2
:102A00008E8980FF09C0F70164816F8B8A7F8460A3
:102A10008E8BCE010E949E13CE010E94AD2CCE0162
:102A200008960E94AD2C1E8A8F8978941F921F925F
:102A30001F921F921F928F931F921F921F921F939C
:102A40008AE79DE09F938F930E94A52A8DB79EB73A
:102A50000C960FB6F8949EBF0FBE8DBFDF91CF913D
:102A60001F91FF90EF900895CF93FC01C0816EEF0E
:102A700075E18C2F0E94D025FC01F894818D33895B
:102A80004489558966897894A085B1852C91928571
:102A9000922321E009F420E01F922F936F935F931C
:102AA0004F933F93869581701F928F931F92CF9380
:102AB0008FE79DE09F938F930E94A52A8DB79EB7C5
:102AC0000C960FB6F8949EBF0FBE8DBFCF910895A0
:102AD00049E150E068E675E1FC0180810E94A12592
:102AE00026ED33E1FC013383228327EC33E1338786
:102AF00022870895EF92FF920F931F93CF93DF9356
:102B00008C0168E675E1FC0180810E94D025EC0112
:102B1000F8948E8980FF13C07E01F8E0EF0EF11C5F
:102B2000C7010E94AD2CF80184819581A681B781EF
:102B30008C879D87AE87BF87C7010E94E32C78945E
:102B4000DF91CF911F910F91FF90EF9008950F9318
:102B50001F93CF93DF938C016EEF75E1FC018081B1
:102B60000E94D025EC010E94AD2CF8018481958152
:102B7000A681B7818C839D83AE83BF838085918539
:102B8000A285B3858F87988BA98BBA8B84858A8F12
:102B9000882361F1F80140895189628973894B87E3
:102BA0005C876D877E872CE334E13B832A838B8FA0
:102BB00084899589A689B789892B8A2B8B2BA1F4C7
:102BC00082E0898F68E675E1F801808D0E94D0254A
:102BD000988F8F8BF801848D8C8FCE01DF91CF91F0
:102BE0001F910F910C94E32C83E0EBCF188E1F8A7A
:102BF000198EDF91CF911F910F9108950F931F931D
:102C0000CF93DF93EC014DE150E06EEF75E18881E9
:102C10000E94A1258C0168858C810E949D1AF80173
:102C2000608771878287DF91CF911F910F910895FF
:102C3000CF93DF93EC010E94AD2CCE0108960E9449
:102C4000AD2CEC89FD89309751F090818181138200
:102C5000128211821082E92FF82F3097B1F71D8A66
:102C60001C8A188E1F8A1E8ADF91CF9108950F93B8
:102C70001F93CF93DF938C0168E675E1FC0180819F
:102C80000E94D025EC01F8940E94181681E08E8BEA
:102C9000F80184819581A681B7818C839D83AE8361
:102CA000BF8380859185A285B385888B998BAA8BFC
:102CB000BB8B892B8A2B8B2B19F0CE010E94E32C26
:102CC000F8018485888F7894DF91CF911F910F91BF
:102CD0000895CF92DF92EF92FF920F931F93CF93BD
:102CE000DF93FC01A28DB38D109761F417861686D1
:102CF00080E0DF91CF911F910F91FF90EF90DF90D7
:102D0000CF9008958D919C911197938F828F1296F9
:102D10004D915D916D917C9115970481158126816E
:102D20003781040F151F261F371F04831583268341
:102D3000378316968D919C911797958784878C0180
:102D4000092E000C220B330B400F511F621F731F03
:102D50004087518762877387892B49F582A1877FD6
:102D600082A318964D915C911997578746871A96BA
:102D70008C911A9780FD1EC006891789208D318D90
:102D800068017901C40ED51EE11CF11CC68AD78AE0
:102D9000E08EF18E809142019091430111969C93B7
:102DA0008E93B0934301A093420181E0A2CF82A110
:102DB0008860D6CF60E070E006891789208D318D5C
:102DC000401B510B620B730B468B578B608F718FBF
:102DD000C389D48985898883DDCFCF92DF92EF9232
:102DE000CF93DF93EC0161E088859985AA85BB8547
:102DF000892B8A2B8B2B09F460E08C810E94332471
:102E00006B01E82E44E250E06DEE76E188810E948D
:102E1000A125FC01C48AD58AE68A21E04885598526
:102E20006A857B85452B462B472B09F420E04C8592
:102E30005D856E857F85452B462B472BB1F430E0B1
:102E4000232BFC0123A3488959896A897B89478BF5
:102E5000508F618F728F6AE070E04F96DF91CF9153
:102E6000EF90DF90CF900C94322630E1E9CFCF93F2
:102E7000DF93EC016DEE76E188810E94D025F89415
:102E8000FC01278D30A1232B69F44C815D816E817B
:102E90007F81FC01438F548F658F768F7894DF910B
:102EA000CF91089584E10E94322F8F929F92AF922A
:102EB000BF92CF92DF92EF92FF921F93CF93DF9357
:102EC000EC01EF8CF8A0E114F10409F4F0C0F70173
:102ED0008081918198A38F8F86809780A084B18410
:102EE00011E081149104A104B10409F4A1C06C891A
:102EF0007D898E89412F0E94D61A8091420190913E
:102F00004301F70191838083F0924301E0924201F3
:102F100081149104A104B104E9F08B8D9C8DAD8DD9
:102F2000BE8D88169906AA06BB06A0F44F89588D57
:102F3000698D7A8D411551056105710509F45BC0F4
:102F40008C819D81AE81BF81480F591F6A1F7B1FF5
:102F5000166022C08BA131E081149104A104B10458
:102F600009F068C084FB992790F921E0922739176E
:102F700009F443C04F89588D698D7A8D41155105EB
:102F800061057105D1F18C819D81AE81BF81480FB2
:102F9000591F6A1F7B1F1460EF8DF8A1309709F04D
:102FA00077C02BA1488B598B6A8B7B8B2071212B8F
:102FB0002BA311FF5FC0880D991DAA1DBB1D12FD1B
:102FC00052C02CEC3DE03B832A838C839D83AE83EF
:102FD000BF8388869986AA86BB868B8D9C8DAD8D96
:102FE000BE8D88199909AA09BB098C879D87AE8770
:102FF000BF8781E011C012608BA1EF8DF8A13097DF
:10300000D9F4188A198A1A8A1B8A8071812B8BA39A
:10301000812F827011FD34C0DF91CF911F91FF90FD
:10302000EF90DF90CF90BF90AF909F908F900895DA
:1030300010E05DCF30E096CF42815381648175818D
:10304000488B598B6A8B7B8B8071912F9460892B75
:103050008BA311FF0FC08C819D81AE81BF81880D34
:10306000991DAA1DBB1D2B2F84179507A607270B9B
:1030700027FDA7CF4C835D836E837F8381E0CCCF18
:1030800040E050E0BA018C819D81AE81BF8193CF39
:10309000C280D380E480F580872F4C155D056E05D6
:1030A0008F0987FD07C08BA1B701A601C9CF85E1B4
:1030B0000E94322F83E10E94322F81E20E94322F40
:1030C0000F931F93CF93DF93FC01A189B2898D9158
:1030D0009C911197928B818B16968D919C9117974D
:1030E000C085D185228521113FC02FB7F894AC014E
:1030F0005527598348832FBF2091420130914301C6
:1031000011963C932E93B0934301A0934201A18961
:10311000B289109759F5278530898217930741F0B6
:1031200083859485A585B6850097A105B10531F401
:1031300080E0DF91CF911F910F91089544815581D7
:1031400066817781840F951FA61FB71F848395839F
:10315000A683B7838DE598E19383828381E0DF9135
:10316000CF911F910F9108958883C6CF12964D91EC
:103170005D916D917C911597278530898217930712
:1031800041F083859485A585B6850097A105B10595
:1031900051F4448355836683778381E0DF91CF9137
:1031A0001F910F9108950481158126813781800F29
:1031B000911FA21FB31F2B2F84179507A607270B5C
:1031C00027FFE7CF80E20E94322FEF92FF920F930A
:1031D0001F93CF93DF937C016FE579E1DC018C9144
:1031E0000E94D0258C010E944C26EC01F7018481BD
:1031F0009581A681B7818A839B83AC83BD838085BB
:1032000091859F838E83F89419821882D8015196F4
:103210008D919C915297892BB9F15396ED91FC9128
:103220005497D183C0835496DC93CE93539780E018
:1032300090E07894892B39F4DF91CF911F910F9111
:10324000FF90EF900895C8010E94AD2CD80112960E
:103250008D919C9113978D559841F1F08A819B81B6
:10326000AC81BD8120E638E1F80133832283848379
:103270009583A683B783C801DF91CF911F910F91EA
:10328000FF90EF900C94E32CF801D48BC38BD28B7E
:10329000C18B81E090E0CDCF8A819B81AC81BD81E3
:1032A000F8014481558166817781272F4817590796
:1032B0006A072B0B27FFD6CF80E20E94322FCF92D6
:1032C000DF92EF92CF93DF93EC01488559856A85B1
:1032D0007B852C858C810E9460266B01E82E45E160
:1032E00050E06FE579E188810E94A125FC01C0864C
:1032F000D186E28688899989908B87878C899D8978
:10330000AE89BF8983879487A587B68780E698E1D1
:103310009383828368E070E0CF014196DF91CF9183
:10332000EF90DF90CF900C943226CF92DF92EF9205
:10333000FF926B017C0109C00E946C25292F6C153E
:103340007D058E052F0927FF09C08091BC0087FFEE
:10335000F3CFFF90EF90DF90CF9008958EE20E9420
:10336000322F24EA2093BC000E9495198091B90065
:1033700090E0A0E0B0E080319105A105B10521F019
:103380000897A105B10509F408958DE20E94322F36
:103390007F928F929F92AF92BF92CF92DF92EF92E5
:1033A000FF920F931F93CF93DF93782EC62F942E07
:1033B000B52E822E0E946C256B017C0120E8C20E86
:1033C00028E3D21E21E0E21EF11CC701B6010E94D3
:1033D000B1197092BB0084E88093BC00C701B601AC
:1033E0000E949519AA24AA94AC0ECC23B1F0C92D41
:1033F000DB2DB12C8FEFA81AB80AAC0EBD1E94E8D5
:10340000992E89918093BB009092BC00C701B601B0
:103410000E949519AC16BD06A1F7C701B6010E941E
:10342000B119872D81608093BB0084E88093BC0034
:10343000C701B6010E949519DFEFD80D882009F168
:103440005801CD2F84EC982ECC2369F09092BC00CB
:10345000C701B6010E9495198091BB00F5018193C7
:103460005F01C15099F7F801ED0FF11DEF0184E8FC
:103470008093BC00C701B6010E9495198091BB00E2
:10348000888384E98093BC00DF91CF911F910F91D5
:10349000FF90EF90DF90CF90BF90AF909F908F9074
:1034A0007F900895BF92CF92DF92EF92FF920F9399
:1034B0001F93CF93DF93D82FC62FB42E152F0E94C2
:1034C0006C256B017C0120E8C20E28E3D21E21E0AE
:1034D000E21EF11CC701B6010E94B119D093BB00D6
:1034E00084E88093BC00C701B6010E9495190FEFD4
:1034F0000C0FCC23A9F0CB2DD12F10E00F5F1F4F65
:103500000C0F1D1F84E8B82E89918093BB00B092E8
:10351000BC00C701B6010E949519C017D107A1F7D9
:1035200084E98093BC00DF91CF911F910F91FF90B0
:10353000EF90DF90CF90BF9008958032A0F567FDA7
:1035400032C0E82FE695E695E695F0E0EE0FFF1F16
:10355000E454F34FA591B491109729F1877021E0BD
:1035600030E0A90102C0440F551F8A95E2F7CA0155
:103570004FB7F89412963C911297662381F0382B3E
:10358000282F209512963C93129711963C911197F3
:10359000232311962C9311974FBFBD010895282F17
:1035A00020953223EFCF89E20E94322FFB012FB703
:1035B000F8949281411105C08095892382832FBFA1
:1035C0000895892B82832FBF0895CF93DF93EC0159
:1035D0006A8D662309F453C0FC0150E031E020E01D
:1035E000A38DB48D4C91958D942309F0532B2F5FAF
:1035F000330F33962613F4CF2C85922F952729F07D
:103600008D85852780959823D9F4888D5D8787FDE2
:1036100003C0815070F1888F4C815D816E817F8104
:1036200088859985AA85BB85840F951FA61FB71F1E
:103630008C839D83AE83BF8381E0DF91CF9108951A
:10364000982F909529238523822B8C879E859830EF
:10365000E0F621E0290F2E87FE01E90FF11D878793
:1036600010926D0181E0809344018FEF888F5D8718
:10367000D3CF10926D0191E090934401CCCF50E0F4
:10368000BBCFAF92BF92DF92EF92FF920F931F9347
:10369000CF93DF93FC01A485B58596854785508936
:1036A000E18822893389F488A588B6887789008DD6
:1036B000118DD28C808586279C9384FD20C085FD4A
:1036C00022C086FD24C087FD26C09C93862F82954C
:1036D000807F808768279C9364FD2AC065FD25C094
:1036E00066FD1CC067FD1EC09C93DF91CF911F91AA
:1036F0000F91FF90EF90DF90BF90AF900895EA0197
:10370000E88285FFDECFE901F88286FFDCCFE501A4
:10371000788387FFDACFE801D882D7CFF5017083AD
:1037200067FFE2CFE801D882DFCFE901F882D8CF86
:10373000FA01E082D3CF0F931F93CF93DF938C01D5
:1037400067EC7BE1DC018C910E94D025FC01D80163
:1037500014969C91828D9817B8F4292F30E0E901D6
:10376000CC0FDD1F2C0F3D1FEF01C20FD31FF8013F
:10377000648580850E949D1A6B8F7C8F8D8FDF9171
:10378000CF911F910F91089583E20E94322FCF9322
:10379000FC01C481C930B8F44C2F50E09A01220FCB
:1037A000331F420F531F455E5F4F67EC7BE1FC0107
:1037B00080810E94A125FC01C28F25EE3AE133836E
:1037C0002283CF91089584E20E94322F5F926F92FC
:1037D0007F928F929F92AF92BF92CF92DF92EF92A1
:1037E000FF920F931F93CF93DF938C01FC01C08056
:1037F000D180E280F38084809580A680B7806624A3
:103800006A94660E662301F1EA01712CFFEF6F1ACC
:103810007F0A640E751E59900E946C25DC01CB0155
:103820008C199D09AE09BF0988159905AA05BB0524
:1038300098F3652DC8010E94411B0E946C256B0105
:103840007C01C615D70539F7F801C082D182E28222
:10385000F382DF91CF911F910F91FF90EF90DF9056
:10386000CF90BF90AF909F908F907F906F905F9020
:1038700008950F931F93CF93DF93EC0161E77CE1F1
:1038800088810E94D0258C01FC0161857285838529
:1038900041E00E94D61A488559856C81C801DF91A4
:1038A000CF911F910F910C94E61B0F931F93CF9311
:1038B000DF93EC0161E77CE188810E94D0258C01D7
:1038C000FC0161857285838540E00E94D61A488597
:1038D00059856C81C801DF91CF911F910F910C9494
:1038E000E61BCF92DF92EF92FF920F931F93CF933D
:1038F000DF93EC014BE150E061E77CE188810E94BD
:10390000A1258C0160E08C810E943324F80161873D
:103910007287838760E088850E943324F80164877A
:103920007587868760E08C850E943324F80167875D
:10393000708B818B60E088890E943324F801628B50
:10394000738B848B60E08C890E943324F801658B33
:10395000768B878B60E0888D0E943324F801608F1E
:10396000718F828FF8940E946C256B017C0160E05E
:10397000C8010E94411B0E946C257894DC01CB0198
:103980008C199D09AE09BF09CC8CDD8CEE8CFF8CA7
:103990008C159D05AE05BF0548F4C81AD90AEA0A78
:1039A000FB0AF801C482D582E682F782DF91CF91CB
:1039B0001F910F91FF90EF90DF90CF9008954F925D
:1039C0005F926F927F928F929F92AF92BF92CF92AF
:1039D000DF92EF92FF920F931F93CF93DF938C01AF
:1039E000562E3A01FC0180809180A280B380C48071
:1039F000D580E680F780EA012196FA014080642DA7
:103A0000607F0E9455210E946C25DC01CB01881942
:103A10009909AA09BB098C159D05AE05BF0598F348
:103A2000642D6295607FC8010E9455210E946C251B
:103A30006B017C01F80180849184A284B384F1E05D
:103A40005F1639F15A945A94852D90E00296680ECB
:103A5000791E5990652D607FC8010E9455210E94F2
:103A60006C25DC01CB018C199D09AE09BF098815B5
:103A70009905AA05BB0598F3652D6295607FC8017D
:103A80000E9455210E946C256B017C01C615D7054B
:103A900001F7F801C082D182E282F382DF91CF91F7
:103AA0001F910F91FF90EF90DF90CF90BF90AF905C
:103AB0009F908F907F906F905F904F900895CF92DE
:103AC000DF92EF92FF92CF93DF93FC01A085B18547
:103AD00082858C93968581E089278687C82FC1705F
:103AE000C688D788E08CF18C97859F5FD1899D1718
:103AF00008F05FC0892F869586958695DF01A80F0F
:103B0000B11D5A962C9130E0892F877002C03595EF
:103B100027958A95E2F72170B701A601C217A9F08F
:103B200033C0892F869586958695DF01A80FB11D34
:103B30005A962C9130E0892F877002C035952795D1
:103B40008A95E2F72170C2131FC04C0D5D1D6E1DDA
:103B50007F1D9F5F9D1728F38AE590E29383828300
:103B600084819581A681B781480F591F6A1F7B1FE9
:103B7000448355836683778381E0DF91CF91FF9003
:103B8000EF90DF90CF900895978784819581A681EB
:103B9000B781480F591F6A1F7B1F44835583668373
:103BA000778381E0DF91CF91FF90EF90DF90CF900E
:103BB0000895B701A601D0CFCF92DF92EF92FF9286
:103BC0000F931F93CF93DF93EC01E885F9858A85E6
:103BD00080830E946C253E8521E023272E872F8538
:103BE0002F5F2F87213009F45CC02530E0F40C8171
:103BF0001D812E813F814A895B896C897D89DB012A
:103C0000CA01800F911FA21FB31F8C839D83AE83B7
:103C1000BF8381E0DF91CF911F910F91FF90EF90D3
:103C2000DF90CF900895CC80DD80EE80FF80AB01E7
:103C3000BC014C195D096E097F098E899F89A88D89
:103C4000B98D481B590B6A0B7B0BDB01CA0102962D
:103C5000A11DB11DB7FD34C0B595A7959795879562
:103C6000B595A795979587950A891B892C893D89D4
:103C7000800F911FA21FB31F8E8B9F8BA88FB98FB0
:103C80002FE53DE13B832A834C0D5D1D6E1D7F1D9D
:103C9000840F951FA61FB71F8C839D83AE83BF83A0
:103CA000B8CF0C811D812E813F81AB01BC01401B2F
:103CB000510B620B730B4E8B5F8B688F798F9BCF91
:103CC000DB01CA010596A11DB11DC6CFEF92FF927F
:103CD0000F931F93CF93DF937C0167E07FE1FC019B
:103CE00080810E94D025EC011E8511FF07C0DF9165
:103CF000CF911F910F91FF90EF900895F7010481EC
:103D000060857185F4840B3008F045C0FAE0FF153A
:103D100008F441C0402F50E04A960E9486301F862A
:103D2000117312601E87802F880F880F880F898B70
:103D3000FF0CFF0CFF0CF88A002349F08A8D8F736B
:103D40008A3229F48CED9DE19B838A830CC08A8999
:103D50009B89AC89BD898E8B9F8BA88FB98F8FE58E
:103D60009DE19B838A83F8940E946C25DC01CB0142
:103D70008058934FAF4FBF4F8C839D83AE83BF83DB
:103D8000CE010E94E32C7894DF91CF911F910F9187
:103D9000FF90EF90089585E20E94322F0F931F93BA
:103DA000CF93DF938C0167EC7BE1DC018C910E9467
:103DB000D025EC01D8011496EC918F898E0F8F8B52
:103DC000F8948E85E817D0F48E1BF0E03F96EC0F48
:103DD000FD1FDE011F962FEF280F30E0205F3F4FC1
:103DE0002C0F3D1F91919D93A217B307D9F78E8792
:103DF0007894DF91CF911F910F9108951E868EEFD9
:103E0000888F7894DF91CF911F910F9108957F92C1
:103E10008F929F92AF92BF92CF92DF92EF92FF92DA
:103E20000F931F93CF93DF93EC0144E250E067E0E0
:103E30007FE188810E94A1258C0178848C809D80FF
:103E4000AE80BF80CC84DD84EE84FF8461E071109D
:103E500001C060E0882D0E949D1AF8016387748775
:103E6000858761E08C2D0E943324F801608771877B
:103E7000828788899989AA89BB89828B938BA48B35
:103E8000B58B711018C091E08C149D04AE04BF0472
:103E9000C1F080E0892BF8018687DF91CF911F91D7
:103EA0000F91FF90EF90DF90CF90BF90AF909F90D9
:103EB0008F907F90089591E18C149D04AE04BF040F
:103EC00041F780E2E7CF0F931F93CF93DF938C01ED
:103ED00067EC7BE1FC0180810E94D025EC010E940F
:103EE000AD2CF80184819581A681B7818C839D8357
:103EF000AE83BF8340855185628573854887598726
:103F00006A877B8780898D878C871E861F8A8EEFC4
:103F1000888F8485898F87FD10C0452B462B472BC2
:103F200029F4DF91CF911F910F910895CE01DF9178
:103F3000CF911F910F910C94E32C82E20E94322FBB
:103F4000CF93DF93EC018E8585FD0DC06885798563
:103F50008A8541E00E94D61A8E85807381608E87A3
:103F6000DF91CF910895E885F9858A852FB7F89478
:103F70009281982B92839181892B81832FBF8E858B
:103F8000807381608E87DF91CF910895CF93DF9307
:103F9000FC01A385B4855C918785982F977021E0FB
:103FA00030E001C0220F9A95EAF7982F96959695E2
:103FB0009695DF01A90FB11D5A969C915A97458598
:103FC0004523E1F0292B5A962C938F5F908989170E
:103FD000E8F487874481558166817781868997894E
:103FE000A08DB18D840F951FA61FB71F8483958365
:103FF000A683B78381E0DF91CF910895209529238F
:104000005A962C938F5F9089891718F3EF01CF018F
:104010000E94A01F8E8588608E8710926D0181E0BE
:104020008093450180E0DF91CF910895CF93DF9396
:10403000FC01A385B4859C9185858923E9F086855B
:1040400084608687878591E0980F9787803408F58C
:10405000448155816681778186899789A08DB18D4C
:10406000840F951FA61FB71F84839583A683B783EC
:1040700081E0DF91CF910895868582FFE3CF178697
:1040800086EC9FE193838283CF01DF91CF910C94E3
:10409000C61FEF01108ACF010E94A01F8E85886085
:1040A0008E8710926D0181E08093450180E0DF9161
:1040B000CF9108950F931F93CF93FC01C089CC2318
:1040C000E9F1868585FD23C0178686E190E293831A
:1040D000828386899789A08DB18D880F991FAA1F29
:1040E000BB1F880F991FAA1FBB1F44815581668182
:1040F0007781840F951FA61FB71F84839583A6839E
:10410000B783C1E08C2FCF911F910F910895A385A4
:10411000B48595852FB7F89484FF21C012968C91B1
:104120001297892B909512968C93129711968C91D9
:104130001197982311969C932FBFC6CF8C010E9494
:10414000A01FF80186858860868710926D0181E046
:10415000809345018C2FCF911F910F910895129656
:104160008C91129790958923DECFFC0192899460FF
:10417000928B10926D0181E08093460180E008955A
:104180000F931F93CF93DF938C0144E450E060ECD6
:1041900070E2FC0180810E94A125EC0185EB90E298
:1041A0009B838A836DE770E1F80184810E94D025AA
:1041B0009D878C87DF91CF911F910F910895CF93A9
:1041C000DF93EC0144969F938F938B891F928F937B
:1041D0008F858F938E858F931F926F9387E59DE0D8
:1041E0009F938F930E94A52A1B8A8E859F85019697
:1041F0009F878E878DB79EB70A960FB6F8949EBF9D
:104200000FBE8DBFDF91CF910895FC014481558190
:1042100066817781208580810C946026DF92EF9201
:10422000FF920F931F93CF93DF93EC01D88883E025
:104230008D15B0F16DE770E188810E94D0257C0179
:104240008AE090E00E94822A8C0161E08C810E94C9
:104250009D1AF80160837183828360E088850E94E3
:104260003324F80163837483858360E08C850E9426
:104270003324F801668377838087D186F7018581AF
:10428000982F967081F4F7011183008382608583F3
:10429000DF91CF911F910F91FF90EF90DF900895E4
:1042A0008BE10E94322F0E94C90DCF93DF93DC0176
:1042B0001C96ED91FC911D971E969C911E971F9642
:1042C000CD91DC91509751962C9188E005C0908358
:1042D000660F9083815049F067FFF9CF288360957E
:1042E0009083660F90838150B9F7DF91CF91089545
:1042F0000F931F93CF93DF93EC0167E971E28881FD
:104300000E94D0258C016AEF0E9455216C816111B9
:1043100005C0DF91CF911F910F9108954885598570
:10432000C801DF91CF911F910F910C94DF1CCF92A8
:10433000DF92EF92FF920F931F93CF93DF938C0145
:1043400042E150E067E971E2FC0180810E94A12511
:10435000EC0160E0F80180850E9433246C877D8742
:104360008E8760E0F80184850E9433246F87788B04
:10437000898B61E0F80184810E94332468EFCE01CB
:104380000E94552160E2CE010E945521F8940E94BE
:104390006C256B017C0160E0CE010E9455210E94DA
:1043A0006C257894688379838A839B83DC01CB01B5
:1043B0008C199D09AE09BF09F801C088D188E2882F
:1043C000F3888C159D05AE05BF0540F4C81AD90ABF
:1043D000EA0AFB0ACC82DD82EE82FF82F8010489C0
:1043E00015892689378980179107A207B30740F4FA
:1043F000081B190B2A0B3B0B088719872A873B8759
:10440000DF91CF911F910F91FF90EF90DF90CF90B0
:1044100008950F931F93CF93DF93EC0167E971E247
:1044200088810E94D0258C0168EF0E9455216C8103
:10443000611105C0DF91CF911F910F9108954885BB
:104440005985C801DF91CF911F910F910C94DF1C0A
:10445000CF92DF92EF92FF920F931F93CF93DF9350
:10446000CDB7DEB729970FB6F894DEBF0FBECDBF2C
:104470008C01F62E9E012F5F3F4F89E0F9011192CA
:104480008A95E9F782EF898349E061E0F801848544
:1044900095850E94C711F801A389B0E05496A00F3A
:1044A000B11F86E0FE01329601900D928A95E1F7E8
:1044B000F80183898A5F838B8B3208F044C0898539
:1044C0008F778F3160F0F801208931892F3FFFEF1E
:1044D0003F0729F02F5F3F4FF801318B208B82502F
:1044E0008F31B0F1F801828981FD0FC029960FB696
:1044F000F894DEBF0FBECDBFDF91CF911F910F911A
:10450000FF90EF90DF90CF900895C8010E94AD2CEE
:10451000F80182898B7F828BF8940E946C25F801C8
:10452000C084D184E284F384DC01CB018C0D9D1D19
:10453000AE1DBF1D84839583A683B783C8010E94E7
:10454000E32C7894D3CF6F2DC8010E94DF20B7CF22
:1045500010926D0181E080934601C8CF5F926F9207
:104560007F928F929F92AF92BF92CF92DF92EF9203
:10457000FF920F931F93CF93DF9300D0CDB7DEB799
:104580006C01FC01E08060EC70E28E2D0E94D02571
:104590008C01F60180859185A285B385892B8A2BB4
:1045A0008B2B99F1C8010E94AD2CF6018481958175
:1045B000A681B781F80184839583A683B783F6012A
:1045C00080859185A285B385F80180879187A28730
:1045D000B38781E0828B118A108A17861686138A28
:1045E000C8010E94E32C0F900F90DF91CF911F9193
:1045F0000F91FF90EF90DF90CF90BF90AF909F9082
:104600008F907F906F905F900895C8010E94AD2CAD
:10461000F801128A8DE289831A820E946C25C62EC7
:10462000B72EA82E992E9E012F5F3F4F42E060E0EB
:10463000F801848595850E94C7110E946C25862EFD
:10464000772E682E592E81E2F82E99EBD92E07C0CD
:104650006E2DC8010E942822FA94FF2079F0D98299
:104660001A829E012F5F3F4F42E061E0F80184858E
:1046700095850E94C7118A818F7351F7F80183894C
:10468000882321F06E2DC8010E94DF20F801878564
:104690008F9386858F9381898F9380898F935F9283
:1046A0006F927F928F929F92AF92BF92CF921F9202
:1046B000EF9281E69DE09F938F930E94A52A0FB60B
:1046C000F894DEBF0FBECDBF8ECFB0990FC08091E2
:1046D000480190914901019610921601109215011E
:1046E000909318018093170181E0089581E086BBC3
:1046F00080914801909149010196909349018093DE
:10470000480120E030E83093160120931501909382
:1047100018018093170181E00895CF93DF93FC0186
:1047200084819581A681B781448955896689778975
:10473000C58DD68D3881C42FC170278D232331E0DC
:1047400009F430E0C31761F04F5F5F4F6F4F7F4F49
:10475000448B558B668B778B808F918FA28FB38F15
:104760004089518962897389272F481759076A0739
:104770002B0B27FF18C0248D2160248F448555857D
:1047800066857785840F951FA61FB71F808B918B39
:10479000A28BB38B10926D0181E0809347018481DD
:1047A0009581A681B7814085518562857385840F87
:1047B000951FA61FB71F84839583A683B78381E0C7
:1047C000DF91CF9108950F931F93CF93DF938C01C7
:1047D00065E174E2FC0180810E94D025EC010E9419
:1047E000AD2CF80184819581A681B7818C839D834E
:1047F000AE83BF834085518562857385488759871D
:104800006A877B8744855585668577854C875D8774
:104810006E877F87888B998BAA8BBB8BCE01DF91AC
:10482000CF911F910F910C94E32C0F931F93CF9373
:10483000DF93EC0140E250E065E174E288810E9480
:10484000A1258C0168858C810E949D1AF801658FD5
:10485000768F878F8DE893E293838283DF91CF9168
:104860001F910F910895803278F5E82FE695E6952F
:10487000E695F0E0EE0FFF1FE454F34FA591B491DD
:10488000109711F1877021E030E0A90102C0440FB8
:10489000551F8A95E2F7CA013FB7F89412962C91FA
:1048A000129761110FC04095242312962C931297F2
:1048B00011962C911197282B11962C9311973FBF8D
:1048C000BD010895242BF1CF8AE20E94322F1F925E
:1048D0000F920FB60F9211240BB60F92EF92FF9228
:1048E0000F931F932F933F934F935F936F937F93F8
:1048F0008F939F93AF93BF93CF93DF93EF93FF93E8
:10490000C0911901D0911A01EA81FB81309709F019
:1049100067C0E889F9892A8920838E859F85019758
:1049200009F4B6C09F878E8788859985AA85BB853F
:104930004C815D816E817F81480F591F6A1F7B1FEB
:104940004C835D836E837F8320832AA123FF0EC067
:104950000C851D85012E000C220B330B800F911F3F
:10496000A21FB31F88879987AA87BB87E881F9812F
:104970000481158126813781872F401751076207EF
:10498000830B87FD66C07801F0931A01E09319014B
:10499000DF010190F081E02D0481158126813781AE
:1049A000872F401751076207830B87FFF1CFF983E9
:1049B000E883CD93DC9380918400909185008E19DB
:1049C0009F0997FD25C07894B29945C0F894C0918D
:1049D0001901D0911A01EA81FB81309709F499CF2E
:1049E000CE0109954C815D816E817F818111BECFA1
:1049F000E881F981E480F580F0931A01E0931901D0
:104A000080918400909185008E199F0997FFDBCFDC
:104A1000863A9F4F0CF04FC0F0928900E0928800D8
:104A2000FF91EF91DF91CF91BF91AF919F918F91C6
:104A30007F916F915F914F913F912F911F910F91B6
:104A4000FF90EF900F900BBE0F900FBE0F901F9036
:104A500018957A01B0CFF8948091840090918500E8
:104A60009701281B390B2038314CF4F020916D014F
:104A700027FF26C09C01205C304E30938B00209392
:104A80008A0024E026BB909389008093880093CF0E
:104A9000CE010E946916E889F9899A8990834C8130
:104AA0005D816E817F81A2CF20914A012111DECFED
:104AB00088E20E94322F7894B299CDCFF8947BCFC0
:104AC0009C012854344F30938B0020938A0024E0BB
:104AD00026BB7C01F394A0CF2FB7F894609184009B
:104AE000709185008091480190914901B09902C070
:104AF0002FBF08952FBF7F3FE1F30196089578946B
:104B00000E94612D2FEF260F6623C1F0FC018FEF6D
:104B10009FEF31918327082E8295807F8025092E73
:104B2000982F82958F700826869598278927880F59
:104B3000880F880F8025215060F708958FEF9FEF31
:104B40000895CF93DF9390913201891730F5C82FE4
:104B5000D0E0CC0FDD1FCC0FDD1FE0913301F091D1
:104B60003401EC0FFD1F80819181892BB1F480917C
:104B70003A0190913B01892B81F471836083CA01D2
:104B80000E94822A2091330130913401C20FD31F39
:104B90009B838A83DF91CF9108958BE00E94322F0F
:104BA00090913201891788F4E0913301F09134013A
:104BB00094E0899FE00DF11D112480819181861779
:104BC000970719F48281938108958CE00E94322F17
:104BD000CF92DF92EF92FF92CF93DF93C0913A0191
:104BE000D0913B012097B9F121976E01E12CF12C76
:104BF000A0913901B0E02097D9F020E030E040E00A
:104C000050E0BA018091370190913801FC01E20F28
:104C1000F31F4F5F5F4F6F4F7F4F2A0F3B1F820F76
:104C2000931F918380834C155D056E057F0550F3BE
:104C30008091370190913801CA9FF001CB9FF00D10
:104C4000DA9FF00D1124E80FF91F11821082909362
:104C5000430180934201DF91CF91FF90EF90DF906D
:104C6000CF900895FC0113821282118210826F3F4F
:104C7000710509F07CF480913A0190913B01892BF8
:104C800049F48091390190E08617970714F46093F6
:104C9000390108950E94C30E2FB7F8948091420104
:104CA00090914301009749F0FC014081518150935C
:104CB0004301409342012FBF08958FE00E94322F9D
:104CC000CF92DF92EF92FF921F93CF93DF936A010F
:104CD0007B0164EC7CE0FB019491981749F0675FDD
:104CE0007F4FFDE06C307F07B1F782E30E94322FE7
:104CF000FB013896949191FF19C030EAC3163FE545
:104D0000D306E104F10408F081C0A8EDCA16A7E2B9
:104D1000DA06E104F10408F08AC0B7EFCB16B8E078
:104D2000DB06E104F10488F012E010C0F8EBCF16C6
:104D3000F7E4DF06E104F10408F057C037EFC316CB
:104D400038E0D306E104F10478F711E0FB01339673
:104D5000A591B491FB013596C591D491FB0137968D
:104D60003491E82FE695E695E695F0E0EE0FFF1F0B
:104D7000E454F34F459154918770E1E0F0E07F01F6
:104D800001C0EE0C8A95EAF7FB013196C590D490EC
:104D9000892F8170A038B10509F45CC0EFB7F89491
:104DA0009881977011F0191352C0188381114AC06D
:104DB0009FB7F894622F70E0E601798368839FBF04
:104DC0009C913160392B3C93DA0111969C9111979B
:104DD000E92A1196EC92EFBFB601DF91CF911F91B6
:104DE000FF90EF90DF90CF900895A0ECCA16AEE34D
:104DF000DA06A1E0EA06F104D0F0C114BBEFDB064D
:104E0000B4E0EB06F10488F414E0A0CFC0E8CC16BF
:104E1000CEE7DC06C1E0EC06F10458F4D0E4CD1690
:104E2000DFEBDD06E104F10478F315E08FCF13E04A
:104E30008DCFC114EBEFDE06E4E0EE06F10428F4BA
:104E400016E084CFE6012883BBCF17E07FCF80E355
:104E50000E94322F81E30E94322F4F925F926F9215
:104E60007F92BF92CF92DF92EF92FF920F931F93A8
:104E7000CF93DF93FC01B08062E078E28B2D0E943B
:104E8000D025EC014D805E806F807884C984DA84FF
:104E9000EB84FC840E946C25DC01CB01841995090C
:104EA000A609B7098C159D05AE05BF0568F40E94DB
:104EB0006C25DC01CB0184199509A609B7098C156D
:104EC0009D05AE05BF0598F3CD84DE8468817981A8
:104ED0008A81A0918400B09185000B811C819E0184
:104EE000215F3F4F7901C20ED31ECE14DF0409F4B7
:104EF00057C0F70191917F0128E013C0F8944091C9
:104F0000840050918500FB01808380837894FA01AE
:104F1000EA1BFB0BE017F107D8F4990FDA012150D7
:104F200021F397FFEBCFF8944091840050918500D6
:104F3000FB0180837894FA01EA1BFB0BE017F10771
:104F400038F4990FF894FB0180837894DA01E7CF65
:104F500040E00E94D61A0E946C256D837E838F8369
:104F6000988780E01F928F931F92BF9288E49DE004
:104F70009F938F930E94A52A0F900F900F900F90F0
:104F80000F900F90DF91CF911F910F91FF90EF90B5
:104F9000DF90CF90BF907F906F905F904F9008957B
:104FA0000E946C256D837E838F83988781E0DACFA2
:104FB0000F931F93CF93DF93EC0162E078E2888137
:104FC0000E94D0250C811D812E813F8148856C85F2
:104FD0007D8517FD14C050E0DA01A00FB11FEC0170
:104FE000ED85FE85EA17FB0750F0015F1F4F800F2C
:104FF000911FDF91CF911F910F910C94863086E223
:105000000E94322F6F927F928F92CF92DF92EF9217
:10501000FF92CF93DF93EC0160E08C810E943324F8
:105020003B01882EC884D984EA84FB84D7FC24C041
:10503000A601415F5F4F62E078E288810E94A1256E
:10504000FC01608271828282D686C5868C859D85B0
:105050009483838388899989AA89BB898187928768
:10506000A387B487DF91CF91FF90EF90DF90CF902F
:105070008F907F906F90089587E20E94322FCF9398
:10508000DF93EC0165E479E288810E94D0254885B0
:1050900059856C81FC018081DF91CF910C94521A6B
:1050A0002F923F924F925F926F927F928F929F9238
:1050B000AF92BF92CF92DF92EF92FF920F931F9326
:1050C000CF93DF9300D000D01F92CDB7DEB77C0125
:1050D0002DB73EB73D832C8365E479E2DC018C91EA
:1050E0000E94D0259B838A83F701F481F983D7013D
:1050F00018966D907C9019971C968D919D910D90AE
:10510000BC91A02D80FD6BC01C012D0156944794CD
:1051100037942794F701E088F188C22CD12CF981CB
:105120000F2F10E0C8018C0D9D1D2DB73EB7281B19
:10513000390B0FB6F8943EBF0FBE2DBF8DB79EB78B
:1051400001965C01A801B3010E9486304501800EE2
:10515000911E8401222DA3016981AA81BB818C91BA
:105160000E94C819C114D10499F0CE0CDF1CF401BF
:105170009601D7018D917D0180959081892380834F
:10518000D9019D919D01892B8193CE14DF0489F76C
:105190006981620DA501EA81FB8180810E94521A1A
:1051A000EC81FD810FB6F894FEBF0FBEEDBF0F90EE
:1051B0000F900F900F900F90DF91CF911F910F9153
:1051C000FF90EF90DF90CF90BF90AF909F908F9027
:1051D0007F906F905F904F903F902F9008958FE158
:1051E0000E94322FAF92BF92CF92DF92EF92FF9246
:1051F0000F931F93CF93DF93CDB7DEB77C01ADB68E
:10520000BEB6FC01C08065E479E28C2D0E94D025F9
:10521000F701648140855185D4842DB73EB72D199F
:1052200031090FB6F8943EBF0FBE2DBFEDB7FEB7E4
:1052300031967F018F012D2DFC0180810E94C819BC
:10524000FF92EF921F92DF921F92CF9286E69DE02F
:105250009F938F930E94A52A2DB73EB7285F3F4F9B
:105260000FB6F8943EBF0FBE2DBF0FB6F894BEBE6A
:105270000FBEADBEDF91CF911F910F91FF90EF90C8
:10528000DF90CF90BF90AF900895EF92FF921F9361
:10529000CF93DF93EC018C85182F1F7741E050E00E
:1052A00065E479E288810E94A1257C018C819D8141
:1052B000AE81BF81892B8A2B8B2BF1F48091BC00AE
:1052C00082FD10C061E081E10E94332461E080E151
:1052D0000E9433241092B90088E48093B80084E0DF
:1052E0008093BC00812F880FF7018083DF91CF91DD
:1052F0001F91FF90EF9008958FE20E94322FCF937D
:10530000DF93EC0165E57FE088810E94D025FC01F8
:105310008C819D81AE81BF81892B8A2B8B2B51F48F
:1053200020E0F89492A19D7F922B92A37894DF9134
:10533000CF91089522E0F5CF0F931F93CF93DF9382
:105340008C01EC016E97CE010E94AD2C1C821D8257
:105350001E821F828E899F89A88DB98D2E853F85DB
:10536000821B930BA109B109B7FD3FC0B095A09571
:10537000909581959F4FAF4FBF4F8E8B9F8BA88F7E
:10538000B98F1F861E868AA1847080628AA36B896A
:105390007C898D8940E00E94D61A4AA144706889B0
:1053A00079898A890E94D61AD8011497ED91FC91C7
:1053B00011973097A9F0409142019091430101C0AB
:1053C000F9012081318140839183F0934301E0937F
:1053D00042014E2F9F2F2115310591F71D921C92EE
:1053E000DF91CF911F910F910895B095A095909561
:1053F00081959F4FAF4FBF4FB9CF0F931F93CF935F
:10540000DF938C0165E57FE0FC0180810E94D0255F
:10541000EC0168E675E1F80184810E94D025BE01A7
:10542000625E7F4F4FB7F89428A139A1232B89F4EE
:105430002CE939E239A328A3FC01248935893F8F5F
:105440002E8F758B648B4FBFDF91CF911F910F9182
:10545000089589E10E94322FCF93DF93EC0165E537
:105460007FE088810E94D025FC014C815D816E81A6
:105470007F81F89486859785892B61F444835583D1
:105480006683778392A19F7C906192A37894DF9149
:10549000CF91089586E10E94322FCF93FC01C08105
:1054A00065E57FE08C2F0E94D025FC01F894868969
:1054B0009789A08DB18D26853785821B930BA10915
:1054C000B109B7FF07C0B095A095909581959F4F02
:1054D000AF4FBF4F7894B054BF93AF939F938F93C8
:1054E0001F92CF9384E89DE09F938F930E94A52AFB
:1054F0008DB79EB708960FB6F8949EBF0FBE8DBFAE
:10550000CF910895CF93DF93C0913501D0913601AB
:10551000AE01480F591F2DB73EB721503F4F2227EC
:105520003A952417350770F05093360140933501B2
:10553000AC0160E070E0CE010E94A130CE01DF91AD
:10554000CF91089581E10E94322F2F923F925F9276
:105550006F927F928F929F92AF92BF92CF92DF9283
:10556000EF92FF920F931F93CF93DF93CDB7DEB7E8
:1055700028970FB6F894DEBF0FBECDBF80914B01C8
:105580008823C1F028960FB6F894DEBF0FBECDBFBA
:10559000DF91CF911F910F91FF90EF90DF90CF900F
:1055A000BF90AF909F908F907F906F905F903F9053
:1055B0002F90089581E080934B018E01025E1F4F72
:1055C0002091900250908F022515C0F4452D50E097
:1055D000CC8CDD8C3FEFC31AD30AF60184913A01DB
:1055E000680E711CC3018136910554F1821B91092B
:1055F0008136910560F010924B01C4CF10928F025A
:105600001092900240E050E0512C20E0E1CF109247
:105610008F0260919002561AE52CF12C70E0615DCA
:105620007D4FA7018FE292E00E948F30109290028E
:1056300050928F028091C10080628093C100A701C7
:105640009A01215D3D4F7901F601A491A63008F43D
:105650002BC1AA2EB12CF3E0AF1AB108A20EB31ED3
:10566000EC8DFD8D32969491EC8DFD8D3396C59029
:10567000D4902D5F3F4F3E832D83EC8DFD8D849123
:10568000D70112968C933601690E711C78866F8251
:105690006F807884C614D70409F435C18D809E804C
:1056A000A814B90448F0F6018491853009F4BFC00C
:1056B00008F441C0883018F086E00E94322FF801CB
:1056C00020813181F5016D807E80E619F709AF01F7
:1056D000FF0F660B770B49835A836B837C83A90189
:1056E000330F660B770B69807A808B809C80641601
:1056F00075068606970608F4C8C06D807E802FEF79
:10570000621A720AAD81BE814C931801B4E02B0E6F
:10571000311CF801228133818A01B901863009F4F4
:10572000B7C0C3010E9486304301800E911E9E8245
:105730008D828101A6C0823008F4AEC0833009F4A6
:10574000D8C0F801408151813A01812C912C0E5F23
:105750001F4FD401C3018096A11DB11D8038910552
:10576000A105B10508F4C2C0A4019301305F4F4FF9
:105770005F4F211530444105510508F43FC0D40165
:10578000C30118960097A042B10540F1A40193010E
:105790005C5F211531054105504180F0D401C30102
:1057A0005CE1B695A795979587955A95D1F780684E
:1057B000AD81BE818C931196BE83AD83D401C301AC
:1057C00045E1B695A795979587954A95D1F7806855
:1057D000AD81BE818C931196BE83AD83D401C3018C
:1057E0003EE0B695A795979587953A95D1F780684D
:1057F000AD81BE818C931196BE83AD83ED81FE8118
:105800003196D401C30127E0B695A7959795879562
:105810002A95D1F78068AD81BE818C939F012F5F5F
:105820003F4F3E832D83462D4F7740832AC09801FA
:105830002E5F3F4FF801A081B1818D819E8101963D
:105840006C91662399F08A159B0580F4FD013196D1
:1058500004C0A816B90609F447C00196AC0141502E
:105860005109DA016C9361916111F3CFAC016D8044
:105870007E80461957094150D3014C939E838D83F6
:1058800089012FEFC21AD20A03CFB401A30135CF89
:10589000C3010E94703048CFD8016D907D908D90EB
:1058A0009C900C5F1F4F55CF1A2FD7011C938091EE
:1058B0001B0111968C936DEF610FC7010E94822529
:1058C000E10EF11CF7013397908331968083319676
:1058D0008EE78083A52DA10FA0938F028091C10038
:1058E00080628093C10087CEC501C0CFED81FE816B
:1058F00095CFD8014D915C913A01550F88089908D0
:105900000E5F1F4F26CF0D811E810E191F0913E058
:10591000100FCBCF80E0089510926D01E9E0F1E027
:1059200084819581A681B781AC01BD015659674E2E
:105930007F4F44835583668377839659A74EBF472D
:105940008093050190930601A0930701B09308018D
:1059500081E0089584E00E94322F4FB7F894E091DF
:105960001901F0911A01E817F90729F412C08217FA
:10597000930741F0F9012081318121153105B9F7F3
:105980004FBF0895DC018D919C91918380834FBF1F
:10599000089584819581A681B78180932001909399
:1059A0002101A0932201B0932301808191819093E2
:1059B0001D0180931C018CE191E090931A0180936A
:1059C00019014FBF0895AF92BF92CF92DF92EF922D
:1059D000FF921F93CF93DF93DC011496CD90DD905F
:1059E000ED90FC9017971FB7F894C0911901D091D2
:1059F0001A014C815D816E817F818F2DC416D50681
:105A0000E606870B87FD1FC0FE010990D881C02DD7
:105A10004C815D816E817F819F2DC416D506E6067F
:105A2000970B97FFF1CF1196DC93CE93B183A083B0
:105A30001FBFDF91CF911F91FF90EF90DF90CF902C
:105A4000BF90AF9008955D010E946C252F2DC61662
:105A5000D706E806290B27FD25C081E0CC31D80701
:105A600041F1F501D183C083C0922001D092210180
:105A7000E0922201F0922301B0921D01A0921C013C
:105A80008CE191E090931A01809319018091840038
:105A900090918500C296909389008093880082E05F
:105AA00086BBC6CF80914A018111D7CF83E00E9487
:105AB000322F80911C0190911D01F501918380830B
:105AC000D3CFCF93DF93CDB7DEB729970FB6F89436
:105AD000DEBF0FBECDBF81E992E090933601809387
