:100000000C94DC060C9407070C9407070C94070764
:100010000C9407070C9407070C9407070C94070728
:100020000C94F12F0C9407070C9407070C94070706
:100030000C9407070C9465240C9407070C9407078D
:100040000C9407070C9407070C9407070C940707F8
:100050000C94C82F0C949E2F0C9407070C94070740
:100060000C9407070C9407070C9407070C940707D8
:100070000C9407070C9407070C9407070C940707C8
:100080000C9407070C9407070C940707040004005E
:10009000000407000400020000040000000000004B
:1000A0000004000000000404040404070404000425
:1000B000040000000000040707040000040002021E
:1000C0000404000404000404040400000404040004
:1000D0000203000002040000020200040000040009
:1000E00004040404000400040000000000000000F8
:1000F00001020102E6006F0E02010001350DD3126C
:1001000003010001E500661504040004090DE12364
:10011000050200020D0DC51B060001000000B50E12
:1001200007020002E6004E0F080200020D0DCC1E71
:1001300009010001E50032150A030003150DAC2288
:100140000B020002E30078150C020002E3007B10B2
:100150000D00010000003A2F0E080008DB00A51575
:100160000F060006D5005D19100200020D0DFB29D7
:1001700011020101300D2E0E12030003D2000321E3
:1001800013040004CE00C40E14010001E5002D1379
:1001900015050005C900611F16030003C600FC1504
:1001A000170400030F0D380D18050005C100EB16EC
:1001B00019010001E5004B2A1A030002210D7621E6
:1001C0001B080008B90075111C020002E3002A2A6E
:1001D0001D050003B6004E281E0200020D0DBE20B4
:1001E0001F030002210D371C200400042A0D991B57
:1001F000210400041D0D351622030003C6000F0D57
:1002000023030002210DA41224030002210D3D2826
:10021000250001000000922F26060006B00095215F
:10022000270001000000372F28010001E5002B27DF
:1002300029040004090DA1102A030003AD001324B2
:100240002B00010000007F2F2C040003AA00641E75
:100250002D040004A600530F2E020002E300351700
:100260002F030103150D110E30030003230DE318B6
:1002700031030002210D531C32060006B0000C2190
:1002800033040003120DD62734020102E300430EAB
:1002900035050005A100D00C36020002E3003F1135
:1002A00037010001E50099103808000899006F1C1B
:1002B00039050005940000283A030002210D620D63
:1002C0003B0400039100F0283C0200020D0DEF14E6
:1002D0003D030002210D07223E00010000004913EA
:1002E0003F0200020D0D7D29400500058C00051F11
:1002F000410200020D0D8F0F42030003150D021085
:1003000043040004090D4329440001000000100EBD
:1003100045000500000078DA9D59696F1CB911FD90
:100320002BDC018C64035998E939A5C01FA49136D0
:1003300010D6B2B51E2B4E102C1AAD6ECE0CA1BE2F
:10034000B60F1D59E8BFE7158BD71CEB0562C01827
:10035000B2592C16AB5E5DD4EF83875EE559FC2461
:100360009B5655653B381F6CD2F45CFCF51FCBE502
:100370008F627A3A391D8A0755F69DCA5BFAFAE907
:100380005E5C9AE98F223A8D66A7D170341B8EA2EB
:10039000E9E06490564591941998FC3E48F2BC4AB5
:1003A000934EC695CA5A91567DD97D78970ECEA3A5
:1003B000E1098EEC3A9C1527E9A3C032BE07048BF5
:1003C000603DCBEC7A5DB5FA47951FDEF5A2EEF302
:1003D0003CEE6B4D3F8EFC86DF7AD9BC3A9610E03E
:1003E00091A81BD97671A7D2C796675D93946DA12A
:1003F000BAD81E2A5489FB1BF946B8472E93266E9D
:10040000B77D9755CFE5E07C46572BD76A03895EC9
:10041000F2F1646A8F686B15F310720C3D5599E424
:10042000D52656A5935E8B3D389F4E1C8D11D95213
:10043000F034F66A983A4AFD4D36BBBC76543089A2
:100440001C71A636AA4BF2B8EABBBD0D4F49DE4B74
:100450009A67729DF47917BB0F45F212677D93740A
:1004600000801633F2624A98B3ABEA1D5EE9CEE132
:10047000913F7C9B4D26F3C5D012376D6CCE96769E
:10048000904DDC68EA4633379ABB91CC935767337B
:1004900068C39B4045A93D0043E891AD0AA8D12F10
:1004A000200373F3A6D9DC6D2A6555AB1799EFE9E4
:1004B000244BBA246ED57FB175DB03E75D4CBA08D7
:1004C000A0D24A7C52652889675A3F1747F49CBEE0
:1004D000023E9E87D1F2B6DFD73BBE1C287EE4AD3C
:1004E0000E68EDA3671485AB0E9F87601476292EE6
:1004F000DACD87777F834346E39DBDCFAADB42F405
:1005000038B500C4C582B3BBF959E4CC983A33B6C8
:1005100069FEE8C62A73C3D7328D772D26D2228B87
:10052000F78D385E0427C8BAF698A6696CB095A90D
:10053000C60ED92D3531E3DC8BD86D655354708DE3
:100540003A974714102EC7DD6B2DD9453DAEBB221F
:10055000ED93C6D9AE79890FFC4A74EE2321A353DB
:10056000856458055C1ABABB5321749CC9871E70F8
:10057000AB6AD02DEC145C361A6B6C8BD1DC2E344C
:100580003241846B32D9D079845DC65864099E1B90
:10059000D5C9030A0295269C80932C64B39165FA11
:1005A0001A93A34288337C63AF8DB755210FC26184
:1005B0009B147588503377C170375C42761F29F8D9
:1005C000BE4EC98DDA6C6443B76809C0D0C068E21A
:1005D0000FD7C11842259D741A826C6B85E8089765
:1005E0008B5987226D520E3A27830DBC4D8B899B08
:1005F0008DCD5413419966B9AFC90E3808EB26DC8E
:10060000C42D4E8C0138174C69CCAA9E9CED91915B
:10061000152C99B7C818419F824951656AFD1AC3C4
:10062000DC8E5723B5070993132002AD1AA73AE3CE
:100630006D6CC65D7AFA16E7D2C47D4368CC7970DA
:100640003CA29BCA64D9E17051ADD73845FB904BB1
:100650000610CF46307D0DA7CFC93058E9EBCCEB63
:100660009A33E6B60F8E99820D1B652F8D1DCF94A0
:100670003876E836EC67B4FF134D854793897F7E63
:1006800086ACBCC1C6AD4C1F833C18CDAD0C7B798C
:10069000D0495057F0D8FDF3FD252676FFB190F1F3
:1006A00007354220E68E9464CAB1E6D7CB63A9D65B
:1006B000B1ABC294319BD92D7B19C3913B2540DC52
:1006C0008525A6B0E7321DDD9CBDDEC262AB931D61
:1006D0007E150C057CE964052CCDCD50EF6777DAEB
:1006E0003F0F5AC5294413DE61AF4E189CCF0F68E7
:1006F000F4057482732C77B21DC49FF1A652BE1804
:100700000910CF1DE255A319CFC64C64D5F1279926
:1007100013F7237129E579EC87B876AB1D95036152
:100720003A30D501FC5A065502C41CF92D6DB5EEC0
:100730009E9346867B0BD55636F81755AB8E65C013
:1007400003A6D32133D5F5E5DA2335707424304E72
:10075000AEDF0B5AB3D12ED5F1981591A6398DC6BF
:100760001419E1EF8A0A09171BA2A927D0019940A1
:10077000C9215BB8081EC473A8192C4D62DC51B5A1
:100780000E5B2EAA71E0815B99DDA4430ACA478003
:100790000D96234FD7850957D65563A23DFB9F9EE3
:1007A0003BE3CB975AC124416A198F1DA7BD5B0457
:1007B00044339880C3E031F7F4D09E4DDF6C12A72C
:1007C00066E5E26A19DF5EFC8B221E154A97F7ABDD
:1007D000F8EEE6D38A4A2534447797B393BBCB2906
:1007E000FECF07C162F7AC1797C393BBE5080BCBED
:1007F0008F9F973FC73F7DB9FE853439D4FF4E06A2
:10080000B7CB7B50255D2137C9285A4C6A50DE7D15
:10081000BBE5E3222ABABE5C2FAF6FFE791D7FBB1A
:10082000F974F5F91B3973441F57D75FF091C590E0
:100830008D4A723AEC0A875DD16158BDB9F8185FEC
:100840005EDC5F111B3E6BF5F5E2EB2A5EDDDFAE91
:100850007EC1CAEA9A5666F4F9FA2EBEBAFE78F15B
:10086000EFC1F9FBD11B65E81E45832E3B75AF66D2
:10087000EA681AEA4B0D410390D3FCEE623838FF68
:10088000CFF064F12BC4BEA4F182C74B1A03307AB7
:10089000724513740D8B5FDFD8050C37AD3FE24610
:1008A00055802208342885629519A50B6D9C3587E3
:1008B0007E86F4454E187B15B64CC838D72F935218
:1008C0009455270036410E2B103B3860088D19F1E6
:1008D000BC5518B3ED5B5103BD3889DB4DBBB76F19
:1008E0008918371F8975D50858E1EF76AE5A5ACD69
:1008F000F477FDC9D40ED8FA978EE22CEADD0D0408
:1009000042619974449D183193B4534F929DCD1018
:10091000B7444A9063F4F3571D92356B482A4B61F4
:100920000B60B71F365F72FB2CEAA481C5856C9AF9
:10093000AAD151D82E341299A1ED748FFC5382FBA9
:1009400066A2AB84F654EA8AB48371957C5302EBB9
:100950002A13B6CBF44D2FA70FAE852D95E9DB7585
:10096000D3E9BF818C44490A89DCC31D845D2CAA6C
:100970002769A511D43F71E567975DB7E5FA2B2E7E
:100980004B0FD64DC5E2CEA70EC1124181822A7708
:10099000EE7BEC576A8BACDF5269107CA740D4D752
:1009A0005EE496A394A5D849FFE956D5863BF5EDBC
:1009B000B7C90BC17061F5C525D92D1AC9642305C6
:1009C0008A6B847A6B0F5A502D81A545AD92F5390B
:1009D00015F7D84C194F98A0A3712D9F24299A1E62
:1009E00014FE78C33669328D65434D51EE96B4AB33
:1009F0006B008151B3CEAB676E0D3F01C489E0EB54
:100A000090F7681FA54A395C00AC7981D251B8A033
:100A1000CA9A732DA73FBD5492A4FE73A463930397
:100A200077DD541B28B380E809DD6D8DA40629A16C
:100A30006C497E49A5CA17692E455824C7C131A4FF
:100A40006A9881804AF5E9CA111C68473CAB3C476B
:100A5000AC4FC16FA71BE692C6EF741AFACE0E7A9E
:100A6000085AC1C9D8865A00A250455FD86F16FBF4
:100A7000D0E5CA76CFBAB00733ED963AC4B8771F3F
:100A80006268FCB4AB2AB14EF4EDF866F446F23578
:100A900084D4917076B647425A052FFD0CC035D8E4
:100AA00057AD32628E4CD84ADD42DE976D5F5336C9
:100AB00094ECD63A9652A7F72DE9D26D566D58D1DF
:100AC0003F7041AFDFD95035F7E52318534CE006AE
:100AD00033F8DEFA05FF8CC201A92A73C4B0272CB3
:100AE000270FB90D4DEEFEDCB50893DCB9B8DB6B12
:100AF00093CEC5670447E49307CAC76BEA94DB1F2C
:100B0000B8A1D20F7F2E4E9AE7C08CBB8A969A9DD1
:100B10001211803193625923CAD51F3A7468C5E413
:100B20004943CAA4BAF64866278331BCE949C3845D
:100B300053761E2A1B917A0E9E0228F720FB8E47C1
:100B40008BE914D9E9C44E66BACFE2C96CAAAD8F5D
:100B5000C96C36C778FCF6A6CBEA1AC141F2FB266F
:100B6000B7503BC5594B11B14CE55EDFB52073184A
:100B7000F2A0AAC270E40B20CC223FCB55F03E0974
:100B8000662167309C7A863B55959E044CF5DCB314
:100B9000C54E58D0F5723BBDB90E47F1B18E6431E8
:100BA000F20FAC3B3B92A051137AC5DC97DE79740F
:100BB000DFE10F9EBB4713644FD3D5EB4A5177FF5C
:100BC0003AA104D7058945217722FAE147B77FDFAB
:100BD00013DA303083E0DA6723FFE2D2C2F9DC03B4
:100BE000CA7CEEDF2B76186F2BF4809BC323C2E701
:100BF000106C0F1E00620B0F5F96F2DC2865E27B23
:100C0000FC80D435FB0C9753220524030588FDDABC
:100C100089AD320F3B7F732B8B823E4DF51B283DF8
:100C2000B8800C4785CF4F736A1C7CF4F35039763B
:100C3000CA68B7A5F9B34B46BAD46B3A5D7BCDCE43
:100C4000B8F06BBD61DABE303FED6F6C80C83729FC
:100C50007B1D0CBF60A0809C2FF6BC78F7BA478143
:100C6000DB7394E5BF288C7D5B73283F35345AF6DF
:100C7000B3B053F1484813D7361D7DF40A40BED0B7
:100C8000DD872EF2B66AB3D548F41E304608317FB0
:100C9000664129FF343C3D3B1DBD9F8FA3F79BF967
:100CA0007A3E9CA493F9E0ED7F1BEC9677970900C0
:100CB0000000010203040506072000230026002986
:100CC000000B47004400450080010C4800440045EB
:100CD0000020011D88008000810080001C8A0080A7
:100CE00000810020001FB300B000B10080031EB4DB
:100CF00000B000B10020030E980090009100800029
:100D00000F9A0090009100200004000000040404E9
:100D100004070402070400000400000202040000AB
:100D20000404070400020404040004040004040191
:100D30000704000204000000000000000600020298
:100D40005B1704090D5A0A020D0D594002210D5876
:100D500040030F0D574003120D561203150D551881
:100D600005180D544002210D5314041D0D5240026C
:100D7000210D511003230D501104260D4F11042A8B
:100D80000D4E0D022E0D4D0B01350D4C4001300D59
:100D90004B1204310D4A0B01350D491002360D4836
:100DA0001503380D0040023B0D470E023D0D46096C
:100DB000013F0D450600000011241FBECFEFD0E417
:100DC000DEBFCDBF14BE0FB6F894A8958091600029
:100DD000886180936000109260000FBE11E0A0E077
:100DE000B1E0E0E5F1E600E00BBF02C007900D9234
:100DF000A432B107D9F722E0A4E2B1E001C01D920C
:100E0000A139B207E1F70E947D250C94A6300C941D
:100E10000000CF93DF93CDB7DEB765970FB6F89498
:100E2000DEBF0FBECDBF0E946A256B017C018091A1
:100E30006D01882309F419C40E946A25C61AD70ACD
:100E4000E80AF90AF89480916D01882351F08FEF38
:100E500080936D0178940000F89480916D01811168
:100E6000F9CF78940E946A25A7019601260F371FB3
:100E7000481F591F288B398B4A8B5B8B81E08093ED
:100E80006D0180914001882309F440C01092400117
:100E90008FEF89838E010F5F1F4F66E675E1C801F2
:100EA0000E9478137C01892B89F1D70156968C9189
:100EB00082FFF3CF0E946A25F894F70137892689CB
:100EC000422F4B7F468B78949F938F937F936F93A2
:100ED0001F923F9321701F922F9389811F928F93AE
:100EE00027E73DE03F932F930E94A32A8DB79EB73B
:100EF0000C960FB6F8949EBF0FBE8DBF66E675E1E7
:100F0000C8010E9478137C01892B79F680914101F8
:100F1000882311F1109241018FEF89838E010F5FB9
:100F20001F4F6FE371E1C8010E947813FC01892B08
:100F300099F0958D868D9813F4CFF894858D968DC4
:100F4000891709F4E6C378946FE371E1C8010E9440
:100F50007813FC01892B69F780913101882309F40A
:100F600054C0109231018FEF8B876FE0B62E6FE087
:100F70007DE0CE010B960E9478131C01892B09F4A9
:100F800044C0D10157968C91579780FFF0CFF894C9
:100F9000F101448055806680778087898E7F878BBA
:100FA000789456968C91813009F40BC308F4E3C20F
:100FB000823009F4A0C28330D1F6AB8419861A8638
:100FC0009E01275F3F4F42E061E0F10184899589EE
:100FD0000E94C51189849A849824892498247401D4
:100FE00000E010E0B101605F7F4FC12CA3019201CE
:100FF000C1010C960E94720D82FEB9CF80914A0108
:101000008111B5CF8CE10E94302F80914601882359
:1010100009F469C0109246018FEF8D8322E0422EC1
:101020003DE2532E48E0642E6EEB70E2CE01059651
:101030000E9478138C01892B09F455C0D80152966F
:101040008C9182FFF1CF80FF49C0BD80C8010E9412
:10105000AB2CF801428A59826A820E946A25A62E28
:10106000972E882E792E9E012F5F3F4F42E060E041
:10107000D8011C968D919C911D970E94C511F894E2
:101080000E946A256B017C01F80180859185A2850B
:10109000B3858C0D9D1DAE1DBF1D84839583A683D6
:1010A000B783C8010E94E12C7894FF92EF92DF92FF
:1010B000CF927F928F929F92AF921F92BF9229E51B
:1010C0003DE03F932F930E94A32A8DB79EB70C96C5
:1010D0000FB6F8949EBF0FBE8DBFA6CF6D81C8011D
:1010E0000E942622A1CF80914401882301F1109211
:1010F00044018FEF89838E010F5F1F4F65EC7BE109
:10110000C8010E947813009791F0DC0158962C9149
:101110002F3FA1F7F894FC012685211186C278940F
:1011200065EC7BE1C8010E947813009771F780910C
:101130004501882309F440C0109245018FEF89834F
:101140008E010F5F1F4F9AE4E92E9DE0F92E65E0B6
:101150007FE1C8010E947813009771F1DC011E96AF
:101160002C911E9723FFF3CFF894FC012685277F4F
:10117000268778949C01265E3F4F3F932F9350968D
:101180008C918695869586951F928F9389811F9263
:101190008F93FF92EF920E94A32AEDB7FEB7389685
:1011A0000FB6F894FEBF0FBEEDBF65E07FE1C8014A
:1011B0000E947813009791F680914701882309F4E3
:1011C0004BC0109247018FEF89838E010F5F1F4F35
:1011D00080E4E82E8DE0F82E63E174E2C8010E94FD
:1011E0007813FC01892BC1F1848D80FFF5CFF89431
:1011F0009481258136814781548965897689A789BB
:10120000B08DD18CC28CB38C848D8E7F848F78947A
:10121000BF92CF92DF92BF93AF937F936F935F9311
:101220004F933F932F939F9389811F928F93FF92A8
:10123000EF920E94A32A2DB73EB7205F3F4F0FB613
:10124000F8943EBF0FBE2DBF63E174E2C8010E9457
:101250007813FC01892B41F6A89580916C018823B5
:1012600029F080E48093600010926C0110912E02AE
:10127000112309F46DC00091240100FD12C0153046
:1012800008F466C0D0906E01FD2C8BEF8D0D8C3371
:1012900008F412C2EEE7FE1609F45DC20160009385
:1012A0002401412F50E06EE770E08EE691E00E944D
:1012B0007730009739F00E7F009324018E569140CD
:1012C00011E0180F01FD0CC0902F92609093240143
:1012D00081E193E09F938F930E94A32A0F900F9038
:1012E000D12ECC24CA9480E00D2D10E018C090E0DF
:1012F0004E2D50E0481B590BB801680F791F6259F9
:101300007E4F82599E4F0E948D3010926D018E2D1E
:101310009FB7F89420912E02F21661F09FBFF090D3
:101320002E02EF2CED1819F79FB7F89420912E029A
:10133000F212F4CFE0922E029FBFF1E0CF1208C06C
:1013400081E193E09F938F930E94A32A0F900F90C7
:101350000E946A256B017C01288939894A895B8949
:10136000621B730B840B950B80902D0190902E01C6
:10137000A0902F01B09030013FEF831A930AA30A87
:10138000B30A80922D0190922E01A0922F01B0926B
:1013900030014090290150902A0160902B017090FB
:1013A0002C01460E571E681E791E4092290150924C
:1013B0002A0160922B0170922C016115710541E0A8
:1013C0008407910508F056C19B01AC010E94FC2FD7
:1013D000DC01CB0181509F4FAF4FBF4F892F9A2F18
:1013E000AB2FBB2740912501509126016091270129
:1013F00070912801840F951FA61FB71F84179507AA
:10140000A607B70718F48FEF9FEFDC018093250143
:1014100090932601A0932701B09328014091680181
:101420005091690160916A0170916B015C546B434A
:101430007B4F2F2DC416D506E606270B27FDF7CCCC
:10144000BF93AF939F938F937F926F925F924F92D0
:10145000BF92AF929F928F928FE99DE09F938F935F
:101460000E94A32A8DB79EB70E960FB6F8949EBF22
:101470000FBE8DBF8091680190916901A0916A01B2
:10148000B0916B01C816D906EA06FB0698F4809164
:10149000640190916501A0916601B0916701019688
:1014A000A11DB11D8093640190936501A093660115
:1014B000B0936701C0926801D0926901E0926A011D
:1014C000F0926B01109225011092260110922701D3
:1014D000109228011092290110922A0110922B01DA
:1014E00010922C0110922D0110922E0110922F01BA
:1014F000109230019CCCAB8481E089831A821B82DC
:101500001C829E012F5F3F4F43E061E084899589F3
:101510000E94C51169817A818B819C810E940C3067
:10152000272F382F492F55272C873D874E875F87D8
:1015300037E039831A829E012F5F3F4F42E061E01E
:10154000D10154968D919C9155970E94C511EC84C0
:10155000FD840E851F8500271127B101605F7F4F35
:10156000CA80A3019201C1010C960E94720DBC8534
:10157000B0FFFDCC43CDAB841D821E821F82188636
:101580009E012B5F3F4F44E061E0F1018489958922
:101590000E94C5116D817E818F8198850E940C30DB
:1015A000D62EF72EB101605F7F4FC12CED2C8C0140
:1015B000A3019201C1010C960E94720DD2FED7CCFC
:1015C0001DCDAB84FCE0F9831A821B821C829E0134
:1015D0002F5F3F4F44E061E0D10154968D919C9183
:1015E00055970E94C51169817A818B819C810E94E7
:1015F0000C306B017C01B9821A829E012F5F3F4F34
:1016000042E061E0F101848995890E94C51187015A
:1016100076011127B101605F7F4FCA80A30192015B
:10162000C1010C960E94720DA2CC318D308F78943E
:10163000AC01415F5F4F5F934F931F922F93FC016B
:1016400087891F928F9389811F928F932FE43DE0AA
:101650003F932F930E94A32A8DB79EB70A960FB689
:10166000F8949EBF0FBE8DBF49CDC88AD98AEA8A39
:10167000FB8A04CC6115710550E18507910508F0DE
:10168000C2CE8B019C0101501F4F2F4F3F4F55275A
:10169000432F322F212F0E94FC2FDC01CB014091E0
:1016A0002501509126016091270170912801840F36
:1016B000951FA61FB71FA2CEE0906F018E2D807FD1
:1016C000803109F0E7CD1D1508F442CE8D2D90E054
:1016D000FC01E359FE4F20812E3709F0DBCDAC0130
:1016E00045595E4F1A01FC01E459FE4F9081DA0121
:1016F0008C91292F30E05901B82A6DEF6D0D8EE6DF
:1017000091E00E948025A816B90639F1F0906E018B
:10171000C1CD5489658990892189328943898F5F38
:10172000858F78946F935F934F933F932F939F93FD
:1017300089811F928F93A2E7BDE0BF93AF930E9470
:10174000A32A2DB73EB7265F3F4F0FB6F8943EBF92
:101750000FBE2DBFE6CB11E0C3CD802F8D7F8093D0
:10176000240180911B01E812FEC081E08E0D8F7074
:10177000806180931B01B0E72B16B1E03B0609F0B6
:1017800008F4BAC0E0E7F1E0ADB6BEB68F010F5F76
:101790001F4F2081222309F4E3C0E0E1F3E08491AC
:1017A000281708F0DDC030E0220F331F220F331F4F
:1017B000220F331FF901E751FF4FE4914DB75EB798
:1017C00084E0E89F4019510911240FB6F8945EBFD8
:1017D0000FBE4DBF8DB79EB70196F901E551FF4F82
:1017E0004491F901E451FF4F65917491FB01640F3D
:1017F000711DAC01BD86AC869D8B8C8B6E177F07EF
:1018000009F47FC02016310638F1A491A53038F1D3
:10181000A73011F52801BFEF4B1A5B0AD8016C9075
:101820008201060D111D20163106B0F0862C912C78
:10183000A12CB12CDA018D929D92AD92BC9213979E
:10184000612C712C14964D925D926D927C9217973B
:10185000485F5F4F3196D2CF87E00E94302F7A01E8
:1018600094E0E90EF11C5801AFEFAA1ABA0AD801A8
:101870001C91912F9F77492E512C612C712C012F97
:101880000076003691F117FF3AC085010F5F1F4FB8
:10189000D80111978C91440C551C661C771C440C84
:1018A000551C661C771C440C551C661C771C440C8C
:1018B000551C661C771C440C551C661C771C440C7C
:1018C000551C661C771C440C551C661C771C982FF5
:1018D0009F77492A87FDDACFDA014D925D926D92AA
:1018E0007C921397A701319689CFB0EE4B2A5524ED
:1018F0005A94652C762CC7CFCC24C394F4CC8501A4
:10190000EBCFAC84BD848C899D8940914A014423EE
:1019100031F0F901E651FF4FE491E0FF11C022518F
:101920003F4FF90125913491F90109950FB6F894CB
:10193000BEBE0FBEADBE02151305F0F6F80124CFF2
:1019400080914C011F928F93EEEAFDE0FF93EF939D
:101950000E94A32A0FB6F894BEBE0FBEADBEEBCF59
:1019600085E00E94302F1D2DB3CCFC0110926D013B
:1019700081E08093310187898160878B4481558123
:101980006681778180859185A285B385840F951FB7
:10199000A61FB71F84839583A683B78381E008952C
:1019A0000F931F93CF93DF938C016FE07DE0FC01D9
:1019B00080810E94CE25EC010E94AB2CF80184812D
:1019C0009581A681B7818C839D83AE83BF838085FB
:1019D0009185A285B38588879987AA87BB87892B3C
:1019E0008A2B8B2B29F4DF91CF911F910F910895B2
:1019F00084859585A685B7858C879D87AE87BF87AB
:101A000080899189A289B389888B998BAA8BBB8B9A
:101A1000CE01DF91CF911F910F910C94E12CFF9299
:101A20000F931F93CF93DF93EC01F88483E08F151E
:101A3000E0F048E150E06FE07DE088810E949F2562
:101A40008C0185EB9CE0F801938382836BE770E166
:101A50008C810E94CE25F801958B848BF68ADF91CC
:101A6000CF911F910F91FF9008958EE10E94302F2A
:101A7000CF92DF92FF920F931F93CF93DF93EC01EE
:101A80006BE770E18C810E94CE256C01F8840F2DEC
:101A900010E0A8014D5F5F4F68E37DE088810E9400
:101AA0009F25FC01D182C082F2826C857D85A801D0
:101AB0000396DF91CF911F910F91FF90DF90CF9010
:101AC0000C948430CF93DF93EC016BE770E1888155
:101AD0000E94CE25288539854C8160E0DF91CF9129
:101AE0000C94C5114F925F926F927F928F929F924A
:101AF000AF92CF92EF92FF920F931F93CF93DF930A
:101B0000EC014B01270138011F92CF927F926F9217
:101B10005F92EF925F934F933F932F931F92AF92F9
:101B200088E69DE09F938F930E94A32A8DB79EB76E
:101B30000E960FB6F8949EBF0FBE8DBF8881998117
:101B4000AA81BB81E816F9060A071B0750F0F401C9
:101B500080819181A281B3818E159F05A007B10775
:101B600020F480914A01882379F0DF91CF911F9171
:101B70000F91FF90EF90CF90AF909F908F907F90BC
:101B80006F905F904F9008958DE10E94302F8BE110
:101B90000E94302F0F931F93FC01A489B589868979
:101BA0008C9393A181E0892783A344815581668129
:101BB000778180FF12C00085118522853385400F13
:101BC000511F621F731F82FD12C0448355836683B9
:101BD000778381E01F910F910895048515852685EF
:101BE0003785400F511F621F731F82FFEECF0089A0
:101BF000118922893389872F401751076207830B88
:101C000087FDE3CF83E597E193838283B901A80140
:101C1000448355836683778381E01F910F910895F4
:101C20000895FC018081A481B5814085518562853C
:101C300073859FB7F894813061F0823019F04C932E
:101C40009FBF08954D935D936D937C9313979FBFB2
:101C5000089511965C934E939FBF0895FC01858172
:101C60008F9384818F9380811F928F938BE89DE067
:101C70009F938F930E94A32A0F900F900F900F9025
:101C80000F900F900895DC012C911496ED91FC912A
:101C900015973FB7F8942130E9F02230B1F08081F8
:101CA00090E0A0E0B0E03FBFBF93AF939F938F93CE
:101CB00086E89DE09F938F930E94A32A0F900F9038
:101CC0000F900F900F900F90089580819181A281C5
:101CD000B381E9CF80819181A0E0B0E0E4CFCF92E1
:101CE000DF92EF92FF92FC0140815181628173810A
:101CF0002481EDEAFCE085919591A591B491481776
:101D000059076A077B0770F56A017B01C20ED11C77
:101D1000E11CF11C8C159D05AE05BF0500F5841B6B
:101D200090E09A012A5E3C4F3F932F939F938F93AD
:101D30007F936F935F934F9384EA9DE09F938F937C
:101D40000E94A32A8DB79EB70A960FB6F8949EBF3D
:101D50000FBE8DBFFF90EF90DF90CF900895822F40
:101D600090E0DFCF80E090E0DCCF80914A018823D3
:101D700029F0823011F010924A01089582E00E9409
:101D8000302F8EE00E94302F0F931F93CF93DF935D
:101D90008C0163E57FE0DC018C910E94CE25EC0193
:101DA0000E944A26FC01D80114964D915D916D91D7
:101DB0007C911797428353836483758318968D9122
:101DC0009C91199791878087892B09F464C0D80169
:101DD0001C968D919C911D97978386831286F8940B
:101DE0008AA1282F217081FB992790F9291729F0C2
:101DF00091E08927928591609287982F9F7E2E850A
:101E00003F85232B59F585FD19C09AA311821082B5
:101E10008A8D9B8D892BA9F1AC8DBD8DED93FC93A3
:101E2000FD8FEC8FCE010E946716CE010E94E12C3F
:101E30007894DF91CF911F910F9108958091420185
:101E40009091430191838083F0934301E093420199
:101E50007894DF91CF911F910F9108959AA31182E9
:101E600010828A8D9B8D892B89F0AC8DBD8DED9371
:101E7000FC93FD8FEC8F7894DF91CF911F910F91A0
:101E80000895FD8FEC8FFB8FEA8FCCCFFD8FEC8F09
:101E9000FB8FEA8FCDCF87E10E94302FFC01648158
:101EA00080810C9431240F931F93CF93DF938C0187
:101EB00043E250E063E57FE0FC0180810E949F25C2
:101EC000EC01F80184859585A685B785892B8A2B39
:101ED0008B2B19F560E06AA3F80184810E943124FC
:101EE000688B798B8A8B60E0F80180850E943124B1
:101EF0006B8B7C8B8D8B80E090E0A0E0B0EC8E8BC8
:101F00009F8BA88FB98F6BE070E0CE014A96DF916E
:101F1000CF911F910F910C94302664E0DCCF8F920B
:101F20009F92AF92BF92FF920F931F93CF93DF9335
:101F30008C016BEE76E1FC0180810E94CE25EC01E4
:101F40000E94AB2C8F8D98A1892B09F058C0F80105
:101F500004811BA1FF24F394002339F16C897D894E
:101F60008E894F2D0E94D41A21E001111CC014FB50
:101F7000882780F991E08927281741F08F89988D6B
:101F8000A98DBA8D892B8A2B8B2B89F410711F296F
:101F90001BA3DF91CF911F910F91FF90BF90AF9046
:101FA0009F908F90089520E0E2CFF12CD7CF0E9430
:101FB0006A258F88988CA98CBA8CDC01CB01880D9E
:101FC000991DAA1DBB1D888B998BAA8BBB8B8C83FB
:101FD0009D83AE83BF8383E597E19B838A831071E2
:101FE00014601F291BA3CE01DF91CF911F910F9188
:101FF000FF90BF90AF909F908F900C94E12C82E166
:102000000E94302FCF92DF92EF92FF920F931F9397
:10201000CF93DF938C016BEE76E1DC018C910E9413
:10202000CE25EC010E944A26FC01D8011496CD90E1
:10203000DD90ED90FC901797C282D382E482F58206
:1020400018964D915D916D917C911B9746835783B6
:1020500060877187F894118210828F8D98A1892BE7
:1020600081F0A9A1BAA1ED93FC93FAA3E9A3789416
:10207000DF91CF911F910F91FF90EF90DF90CF9064
:102080000895FAA3E9A3F8A3EF8F8BA182FD25C0E1
:10209000C88AD98AEA8AFB8A982F94609BA381FD1B
:1020A00010C0CE010E94AB2CCC82DD82EE82FF827A
:1020B00083E597E19B838A83CE010E94E12C78948B
:1020C000D7CF4C815D816E817F81872F4C155D0557
:1020D0006E058F0987FFE5CFF2CF488959896A8954
:1020E0007B89972F4C155D056E059F0997FFD0CF13
:1020F00083E10E94302F0F931F93CF93DF938C01C6
:1021000046E050E06BE770E1FC0180810E949F2572
:10211000EC0161E0F80184810E9431246A837B83B1
:102120008C838D8181608D83DF91CF911F910F9181
:10213000089546E050E06BE770E1FC0180810C946B
:102140009F258F929F92AF92BF92FF920F931F9302
:10215000CF93DF93EC016BE770E188810E94CE257D
:102160008C01F88483E08F1508F484C0F801858120
:10217000867009F07FC08C849D84AE84BF848C817E
:102180009D81AE81BF81892B8A2B8B2B09F074C076
:10219000EBEBFCE0A591B49111968C9184FD04C009
:1021A00060E08CE00E94312460E08FE00E943124E6
:1021B00060E08DE00E94312460E08EE00E949B1A76
:1021C00080E58CBD1DBC8114F2E19F06FAE7AF06E5
:1021D000B10408F041C0811489E098068DE3A80697
:1021E000B10418F5E0E88E16E4E89E06EEE1AE06CE
:1021F000B104C0F5F0E48F16F2E49F06FFE0AF06ED
:10220000B10468F580E2881681EA980687E0A8069E
:10221000B10458F590E0E0E98E16E0ED9E06E3E0AB
:10222000AE06B10428F583E002C090E080E0CF2D37
:10223000CC0FCC0FC065C82BF801C083918385817A
:1022400084608583DF91CF911F910F91FF90BF90A4
:10225000AF909F908F90089591E080E0E8CF90E05C
:1022600081E0E5CF91E081E0E2CF91E082E0DFCF55
:1022700082E0DDCF0E94C70D8CE20E94302FCF9309
:10228000DF93DC0114969C911497C0E0D0E0FE012E
:10229000EF54F34FE4919E1739F02196C830D105E1
:1022A000B1F78BE20E94302F87E980937A0030915A
:1022B0007E0081E090E00C2E01C0880F0A94EAF7BE
:1022C000832B80937E004FE150E06FE371E18C91AE
:1022D0000E949F25FC018BE694E193838283C28F49
:1022E00081E0858FDF91CF9108950F931F93CF9356
:1022F000DF938C016FE371E1FC0180810E94CE25A8
:10230000EC010E94AB2C909100018A8D981303C0C0
:102310008FEF80930001F80184819581A681B781B8
:10232000888B998BAA8BBB8B8C839D83AE83BF8359
:1023300080859185A285B3858C879D87AE87BF8771
:1023400084858E8F91E0980F9D8F40895189628995
:102350007389488759876A877B87248935893F8BAA
:102360002E8B208D318D398F288F948D9C8F8111EC
:1023700005C0DF91CF911F910F910895CE01DF919C
:10238000CF911F910F910C94E12C8F929F92AF925D
:10239000BF92CF92DF92EF92FF920F931F93CF9352
:1023A000DF934C01E62E142F6901DC0115968C9108
:1023B0001597982F967009F462C081FD6DC0F401E5
:1023C000908181819CBD8DBDD40115969C911597FE
:1023D00090FD71C091FF7AC0D401CD91DC91AA2407
:1023E000AA94A10E1123A9F1B12CBFEFAB1ABB0A1D
:1023F000AC0CBD1CF601F08008E010E0898580FF80
:102400007AC0EE81FF81888580834F2D40786B8173
:102410007C818D810E94D41AFF0CEE81FF8188851A
:102420008083110FE881F98190818A81892391E06D
:1024300009F490E0192B015009F7EE2011F0D601B4
:102440001C93BFEFCB1ADB0ACA14DB0499F6F40124
:10245000958190FF14C0D40112966D917D918C915D
:1024600041E0DF91CF911F910F91FF90EF90DF90AE
:10247000CF90BF90AF909F908F900C94D41ADF9123
:10248000CF911F910F91FF90EF90DF90CF90BF9071
:10249000AF909F908F900895ED91FC91418542708F
:1024A0006681778180850E94D41AD40115969C910B
:1024B000159790FF8FCF12966D917D918C9140E092
:1024C0000E94D41AF401958191FD86CFEE2071F11E
:1024D0008FEF810F112309F4BCCFF60190819EBDCF
:1024E0000DB407FEFDCF9EB591938150B8F7D4018E
:1024F00015969C91AECF4F2D40786B817C818D815C
:102500000E94D41AFF0CEE81FF8188858083110F11
:10251000E881F98190818A81892391E009F490E032
:10252000192BEE81FF818885808385CFF601960186
:10253000210F311D2E173F0709F489CF81918EBDE0
:102540000DB407FEFDCFF6CFFF920F931F93CF93ED
:10255000DF93EC0118816BE770E1812F0E94CE259B
:102560000C81F884C9852F2D3C2F402F61E00E94FB
:10257000C511CF93FF921F920F931F921F938DE669
:102580009DE09F938F930E94A32A8DB79EB70896D4
:102590000FB6F8949EBF0FBE8DBFDF91CF911F91F4
:1025A0000F91FF9008950F931F93CF93DF938C01AA
:1025B00080913A0190913B01892B09F04BC06091C9
:1025C000390170E0623071052CF482E080933901AA
:1025D00062E070E0E0913501F09136014DB75EB7F1
:1025E00041505F4F44275A959F01C0E0D0E0C90198
:1025F000860F971F4817590730F121969C01C11586
:10260000A4E0DA07A1F78E1B9F0B0E94802AD093CB
:102610003B01C0933A0190933801809337010E94A7
:10262000E625F80180819181A281B38180933C01EC
:1026300090933D01A0933E01B0933F01DF91CF9174
:102640001F910F910895209711F0C901DCCF80E10F
:102650000E94302F8DE00E94302FCF9320913301C4
:1026600030913401232B91F4FC01C0818C2F90E038
:10267000880F991F880F991F0E94802A9093340118
:1026800080933301C0933201CF9108958AE00E9474
:10269000302F80913A0190913B0121E030914A0125
:1026A000311101C020E01F922F939F938F932091AF
:1026B0003F012F9320913E012F9320913D012F93B5
:1026C00020913C012F9321E0892B09F420E01F92F7
:1026D0002F9380E99DE09F938F930E94A32A8DB74B
:1026E0009EB70C960FB6F8949EBF0FBE8DBF08958F
:1026F000CF93DF93EC01988140913201A091330197
:10270000B09134010BC0FD0184E0989FE00DF11DF4
:102710001124208131812617370741F09F5F9417DC
:1027200090F380E090E0DF91CF91089598838281CB
:102730009381DF91CF9108951F93CF93DF93EC01A5
:10274000162FAC89BD891097B9F01296ED91FC91C6
:1027500013978D919C9111979D8B8C8B11961C9248
:102760001E9213961C921E921297612FCD0109950D
:10277000AC89BD89109749F710926D0181E0809373
:102780004001DF91CF911F910895FC013897968900
:1027900090FF08C0608D678B9A7F9460968BCF0105
:1027A0000E949C1380E00895FC0186898460868BDA
:1027B00010926D0181E080934001448155816681D2
:1027C000778180899189A289B389840F951FA61F7B
:1027D000B71F84839583A683B78381E00895FC01A6
:1027E000A085B1859C9182858923D1F0818D8095CA
:1027F0008170C9F4838D815031F1838F448155817B
:102800006681778187859089A189B289840F951F18
:10281000A61FB71F84839583A683B78381E008959D
:10282000818D817039F38AE394E193838283838974
:102830009489A589B68984839583A683B783828D7D
:10284000838F81E00895A789B08D56969C91569705
:10285000892F817090FFE3CF648D57966C935797C3
:102860009A7F946056969C935697CD010E949C1334
:1028700080E008950F931F93FC01A085B1859C9182
:102880000481158126813781438554856585768548
:10289000400F511F621F731F8285892361F0818D54
:1028A0008095817059F0448355836683778381E0F6
:1028B0001F910F910895818D8170A9F7438B548BDF
:1028C000658B768B8FEE93E193838283CF011F918B
:1028D0000F910C94EF13FC0180917A0086FF0EC0DB
:1028E00084819581A681B7818853984FAF4FBF4FA0
:1028F00084839583A683B78381E00895828D909128
:102900000001981761F09F3F59F78093000187708D
:10291000806480937C0087ED80937A00E1CF8FEF15
:10292000809300012091780030917900858D968DFB
:10293000891780F544895589240F351F8F5F358BA2
:10294000248B858F891760F1868997892817390725
:10295000C8F1808D918D82179307A0F1138E10928C
:102960006D0181E0809341014089518962897389B9
:1029700080859185A285B385840F951FA61FB71FFB
:10298000808B918BA28BB38B84839583A683B78333
:1029900081E0089581E0358B248B858F8917A0F61F
:1029A000448155816681778184859585A685B78523
:1029B000840F951FA61FB71F84839583A683B783B3
:1029C00081E00895838D8F5F838F948D891738F20E
:1029D00080914A018111C2CF8AE10E94302FEF928B
:1029E000FF921F93CF93DF937C01FC01108166E679
:1029F00075E1812F0E94CE25EC01F8948E8980FF2D
:102A000009C0F70164816F8B8A7F84608E8BCE0151
:102A10000E949C13CE010E94AB2CCE0108960E940E
:102A2000AB2C1E8A8F8978941F921F921F921F923F
:102A30001F928F931F921F921F921F9387E79DE013
:102A40009F938F930E94A32A8DB79EB70C960FB6C3
:102A5000F8949EBF0FBE8DBFDF91CF911F91FF9065
:102A6000EF900895CF93FC01C0816CEF75E18C2F3E
:102A70000E94CE25FC01F894818D338944895589C3
:102A800066897894A085B1852C919285922321E066
:102A900009F420E01F922F936F935F934F933F931E
:102AA000869581701F928F931F92CF938CE79DE044
:102AB0009F938F930E94A32A8DB79EB70C960FB653
:102AC000F8949EBF0FBE8DBFCF91089549E150E0AD
:102AD00066E675E1FC0180810E949F2524ED33E1CB
:102AE000FC013383228325EC33E133872287089569
:102AF000EF92FF920F931F93CF93DF938C0166E6C3
:102B000075E1FC0180810E94CE25EC01F8948E894C
:102B100080FF13C07E01F8E0EF0EF11CC7010E9498
:102B2000AB2CF80184819581A681B7818C879D8724
:102B3000AE87BF87C7010E94E12C7894DF91CF91C7
:102B40001F910F91FF90EF9008950F931F93CF93D4
:102B5000DF938C016CEF75E1FC0180810E94CE2532
:102B6000EC010E94AB2CF80184819581A681B7818C
:102B70008C839D83AE83BF8380859185A285B38539
:102B80008F87988BA98BBA8B84858A8F882361F174
:102B9000F80140895189628973894B875C876D8709
:102BA0007E872AE334E13B832A838B8F848995894E
:102BB000A689B789892B8A2B8B2BA1F482E0898F78
:102BC00066E675E1F801808D0E94CE25988F8F8B87
:102BD000F801848D8C8FCE01DF91CF911F910F91E1
:102BE0000C94E12C83E0EBCF188E1F8A198EDF91B5
:102BF000CF911F910F9108950F931F93CF93DF9360
:102C0000EC014DE150E06CEF75E188810E949F2559
:102C10008C0168858C810E949B1AF80160877187FE
:102C20008287DF91CF911F910F910895CF93DF930A
:102C3000EC010E94AB2CCE0108960E94AB2CEC89D3
:102C4000FD89309751F09081818113821282118227
:102C50001082E92FF82F3097B1F71D8A1C8A188E41
:102C60001F8A1E8ADF91CF9108950F931F93CF93F0
:102C7000DF938C0166E675E1FC0180810E94CE2520
:102C8000EC01F8940E94161681E08E8BF801848185
:102C90009581A681B7818C839D83AE83BF83808518
:102CA0009185A285B385888B998BAA8BBB8B892B49
:102CB0008A2B8B2B19F0CE010E94E12CF801848520
:102CC000888F7894DF91CF911F910F910895CF92C3
:102CD000DF92EF92FF920F931F93CF93DF93FC014C
:102CE000A28DB38D109761F41786168680E0DF9170
:102CF000CF911F910F91FF90EF90DF90CF900895AB
:102D00008D919C911197938F828F12964D915D9129
:102D10006D917C9115970481158126813781040F6F
:102D2000151F261F371F04831583268337831696A6
:102D30008D919C911797958784878C01092E000CA3
:102D4000220B330B400F511F621F731F40875187A7
:102D500062877387892B49F582A1877F82A31896A2
:102D60004D915C911997578746871A968C911A97BF
:102D700080FD1EC006891789208D318D680179017B
:102D8000C40ED51EE11CF11CC68AD78AE08EF18ED6
:102D9000809142019091430111969C938E93B09340
:102DA0004301A093420181E0A2CF82A18860D6CFE7
:102DB00060E070E006891789208D318D401B510B32
:102DC000620B730B468B578B608F718FC389D489CD
:102DD00085898883DDCFCF92DF92EF92CF93DF9307
:102DE000EC0161E088859985AA85BB85892B8A2BB2
:102DF0008B2B09F460E08C810E9431246B01E82E5A
:102E000044E250E06BEE76E188810E949F25FC0150
:102E1000C48AD58AE68A21E0488559856A857B85FA
:102E2000452B462B472B09F420E04C855D856E85AC
:102E30007F85452B462B472BB1F430E0232BFC013B
:102E400023A3488959896A897B89478B508F618F71
:102E5000728F6AE070E04F96DF91CF91EF90DF9034
:102E6000CF900C94302630E1E9CFCF93DF93EC0183
:102E70006BEE76E188810E94CE25F894FC01278DC7
:102E800030A1232B69F44C815D816E817F81FC012F
:102E9000438F548F658F768F7894DF91CF9108950B
:102EA00084E10E94302F8F929F92AF92BF92CF9277
:102EB000DF92EF92FF921F93CF93DF93EC01EF8CA1
:102EC000F8A0E114F10409F4F0C0F70180819181C8
:102ED00098A38F8F86809780A084B18411E081149D
:102EE0009104A104B10409F4A1C06C897D898E8983
:102EF000412F0E94D41A8091420190914301F70121
:102F000091838083F0924301E09242018114910405
:102F1000A104B104E9F08B8D9C8DAD8DBE8D88161A
:102F20009906AA06BB06A0F44F89588D698D7A8D43
:102F3000411551056105710509F45BC08C819D81C6
:102F4000AE81BF81480F591F6A1F7B1F166022C0C8
:102F50008BA131E081149104A104B10409F068C08F
:102F600084FB992790F921E09227391709F443C08F
:102F70004F89588D698D7A8D41155105610571050F
:102F8000D1F18C819D81AE81BF81480F591F6A1F8D
:102F90007B1F1460EF8DF8A1309709F077C02BA14B
:102FA000488B598B6A8B7B8B2071212B2BA311FFB4
:102FB0005FC0880D991DAA1DBB1D12FD52C02AECD1
:102FC0003DE03B832A838C839D83AE83BF838886C9
:102FD0009986AA86BB868B8D9C8DAD8DBE8D8819FA
:102FE0009909AA09BB098C879D87AE87BF8781E0B5
:102FF00011C012608BA1EF8DF8A13097D9F4188A17
:10300000198A1A8A1B8A8071812B8BA3812F827067
:1030100011FD34C0DF91CF911F91FF90EF90DF90B1
:10302000CF90BF90AF909F908F90089510E05DCFAC
:1030300030E096CF4281538164817581488B598BF2
:103040006A8B7B8B8071912F9460892B8BA311FFEE
:103050000FC08C819D81AE81BF81880D991DAA1DF5
:10306000BB1D2B2F84179507A607270B27FDA7CF7E
:103070004C835D836E837F8381E0CCCF40E050E062
:10308000BA018C819D81AE81BF8193CFC280D380F4
:10309000E480F580872F4C155D056E058F0987FD4F
:1030A00007C08BA1B701A601C9CF85E10E94302FCF
:1030B00083E10E94302F81E20E94302F0F931F93F3
:1030C000CF93DF93FC01A189B2898D919C911197D7
:1030D000928B818B16968D919C911797C085D18587
:1030E000228521113FC02FB7F894AC015527598391
:1030F00048832FBF209142013091430111963C93A8
:103100002E93B0934301A0934201A189B2891097F5
:1031100059F5278530898217930741F08385948577
:10312000A585B6850097A105B10531F480E0DF9152
:10313000CF911F910F9108954481558166817781C8
:10314000840F951FA61FB71F84839583A683B7831B
:103150008BE598E19383828381E0DF91CF911F918A
:103160000F9108958883C6CF12964D915D916D9110
:103170007C911597278530898217930741F08385C5
:103180009485A585B6850097A105B10551F44483C2
:1031900055836683778381E0DF91CF911F910F91F3
:1031A00008950481158126813781800F911FA21F08
:1031B000B31F2B2F84179507A607270B27FFE7CFF1
:1031C00080E20E94302FEF92FF920F931F93CF93D4
:1031D000DF937C016DE579E1DC018C910E94CE25C5
:1031E0008C010E944A26EC01F70184819581A68119
:1031F000B7818A839B83AC83BD83808591859F83C0
:103200008E83F89419821882D80151968D919C91E1
:103210005297892BB9F15396ED91FC915497D18334
:10322000C0835496DC93CE93539780E090E07894DB
:10323000892B39F4DF91CF911F910F91FF90EF907F
:103240000895C8010E94AB2CD80112968D919C91D3
:1032500013978B559841F1F08A819B81AC81BD8198
:103260002EE538E1F8013383228384839583A68396
:10327000B783C801DF91CF911F910F91FF90EF901D
:103280000C94E12CF801D48BC38BD28BC18B81E0E1
:1032900090E0CDCF8A819B81AC81BD81F8014481D2
:1032A000558166817781272F481759076A072B0BAD
:1032B00027FFD6CF80E20E94302FCF92DF92EF928D
:1032C000CF93DF93EC01488559856A857B852C85F2
:1032D0008C810E945E266B01E82E45E150E06DE591
:1032E00079E188810E949F25FC01C086D186E28613
:1032F00088899989908B87878C899D89AE89BF89B8
:1033000083879487A587B6878EE598E19383828328
:1033100068E070E0CF014196DF91CF91EF90DF90B0
:10332000CF900C943026CF92DF92EF92FF926B01F8
:103330007C0109C00E946A25292F6C157D058E0528
:103340002F0927FF09C08091BC0087FFF3CFFF90B2
:10335000EF90DF90CF9008958EE20E94302F24EA04
:103360002093BC000E9493198091B90090E0A0E0E6
:10337000B0E080319105A105B10521F00897A105C4
:10338000B10509F408958DE20E94302F7F928F924B
:103390009F92AF92BF92CF92DF92EF92FF920F93E4
:1033A0001F93CF93DF93782EC62F942EB52E822EA7
:1033B0000E946A256B017C0120E8C20E28E3D21E20
:1033C00021E0E21EF11CC701B6010E94AF19709204
:1033D000BB0084E88093BC00C701B6010E9493192A
:1033E000AA24AA94AC0ECC23B1F0C92DDB2DB12CAC
:1033F0008FEFA81AB80AAC0EBD1E94E8992E8991D9
:103400008093BB009092BC00C701B6010E94931943
:10341000AC16BD06A1F7C701B6010E94AF19872DF2
:1034200081608093BB0084E88093BC00C701B60133
:103430000E949319DFEFD80D882009F15801CD2F94
:1034400084EC982ECC2369F09092BC00C701B601A1
:103450000E9493198091BB00F50181935F01C150D7
:1034600099F7F801ED0FF11DEF0184E88093BC009E
:10347000C701B6010E9493198091BB00888384E93B
:103480008093BC00DF91CF911F910F91FF90EF903F
:10349000DF90CF90BF90AF909F908F907F900895D6
:1034A000BF92CF92DF92EF92FF920F931F93CF9331
:1034B000DF93D82FC62FB42E152F0E946A256B01DB
:1034C0007C0120E8C20E28E3D21E21E0E21EF11C9E
:1034D000C701B6010E94AF19D093BB0084E8809366
:1034E000BC00C701B6010E9493190FEF0C0FCC234B
:1034F000A9F0CB2DD12F10E00F5F1F4F0C0F1D1F18
:1035000084E8B82E89918093BB00B092BC00C701BB
:10351000B6010E949319C017D107A1F784E98093DF
:10352000BC00DF91CF911F910F91FF90EF90DF9042
:10353000CF90BF9008958032A0F567FD32C0E82F8C
:10354000E695E695E695F0E0EE0FFF1FE754F34FA2
:10355000A591B491109729F1877021E030E0A9017D
:1035600002C0440F551F8A95E2F7CA014FB7F8947D
:1035700012963C911297662381F0382B282F2095C4
:1035800012963C93129711963C9111972323119612
:103590002C9311974FBFBD010895282F20953223FA
:1035A000EFCF89E20E94302FFB012FB7F894928170
:1035B000411105C08095892382832FBF0895892BEF
:1035C00082832FBF0895CF93DF93EC016A8D66232A
:1035D00009F453C0FC0150E031E020E0A38DB48D2C
:1035E0004C91958D942309F0532B2F5F330F339615
:1035F0002613F4CF2C85922F952729F08D858527CA
:1036000080959823D9F4888D5D8787FD03C081500C
:1036100070F1888F4C815D816E817F81888599856D
:10362000AA85BB85840F951FA61FB71F8C839D831A
:10363000AE83BF8381E0DF91CF910895982F90955D
:1036400029238523822B8C879E859830E0F621E004
:10365000290F2E87FE01E90FF11D878710926D015A
:1036600081E0809344018FEF888F5D87D3CF1092E4
:103670006D0191E090934401CCCF50E0BBCFAF926D
:10368000BF92DF92EF92FF920F931F93CF93DF933E
:10369000FC01A485B585968547855089E1882289F6
:1036A0003389F488A588B6887789008D118DD28CEE
:1036B000808586279C9384FD20C085FD22C086FDE1
:1036C00024C087FD26C09C93862F8295807F8087AB
:1036D00068279C9364FD2AC065FD25C066FD1CC05B
:1036E00067FD1EC09C93DF91CF911F910F91FF90BA
:1036F000EF90DF90BF90AF900895EA01E88285FFD8
:10370000DECFE901F88286FFDCCFE501788387FF11
:10371000DACFE801D882D7CFF501708367FFE2CF17
:10372000E801D882DFCFE901F882D8CFFA01E08240
:10373000D3CF0F931F93CF93DF938C0165EC7BE185
:10374000DC018C910E94CE25FC01D80114969C913D
:10375000828D9817B8F4292F30E0E901CC0FDD1FD6
:103760002C0F3D1FEF01C20FD31FF8016485808528
:103770000E949B1A6B8F7C8F8D8FDF91CF911F9151
:103780000F91089583E20E94302FCF93FC01C481F2
:10379000C930B8F44C2F50E09A01220F331F420F6A
:1037A000531F455E5F4F65EC7BE1FC0180810E9409
:1037B0009F25FC01C28F23EE3AE133832283CF9110
:1037C000089584E20E94302F5F926F927F928F92D1
:1037D0009F92AF92BF92CF92DF92EF92FF920F93A0
:1037E0001F93CF93DF938C01FC01C080D180E280D6
:1037F000F38084809580A680B78066246A94660EE4
:10380000662301F1EA01712CFFEF6F1A7F0A640E43
:10381000751E59900E946A25DC01CB018C199D0907
:10382000AE09BF0988159905AA05BB0598F3652D52
:10383000C8010E943F1B0E946A256B017C01C615CE
:10384000D70539F7F801C082D182E282F382DF9195
:10385000CF911F910F91FF90EF90DF90CF90BF908D
:10386000AF909F908F907F906F905F9008950F938F
:103870001F93CF93DF93EC016FE67CE188810E9478
:10388000CE258C01FC0161857285838541E00E9413
:10389000D41A488559856C81C801DF91CF911F9159
:1038A0000F910C94E41B0F931F93CF93DF93EC01C4
:1038B0006FE67CE188810E94CE258C01FC01618548
:1038C0007285838540E00E94D41A488559856C81B1
:1038D000C801DF91CF911F910F910C94E41BCF92FF
:1038E000DF92EF92FF920F931F93CF93DF93EC0140
:1038F0004BE150E06FE67CE188810E949F258C01BE
:1039000060E08C810E943124F8016187728783878F
:1039100060E088850E943124F80164877587868776
:1039200060E08C850E943124F8016787708B818B61
:1039300060E088890E943124F801628B738B848B4C
:1039400060E08C890E943124F801658B768B878B2F
:1039500060E0888D0E943124F801608F718F828F22
:10396000F8940E946A256B017C0160E0C8010E9406
:103970003F1B0E946A257894DC01CB018C199D09BC
:10398000AE09BF09CC8CDD8CEE8CFF8C8C159D05AF
:10399000AE05BF0548F4C81AD90AEA0AFB0AF801BD
:1039A000C482D582E682F782DF91CF911F910F9179
:1039B000FF90EF90DF90CF9008954F925F926F92BB
:1039C0007F928F929F92AF92BF92CF92DF92EF92AF
:1039D000FF920F931F93CF93DF938C01562E3A01E2
:1039E000FC0180809180A280B380C480D580E68075
:1039F000F780EA012196FA014080642D607F0E94E1
:103A000053210E946A25DC01CB0188199909AA0972
:103A1000BB098C159D05AE05BF0598F3642D629515
:103A2000607FC8010E9453210E946A256B017C01BE
:103A3000F80180849184A284B384F1E05F1639F1A7
:103A40005A945A94852D90E00296680E791E5990EA
:103A5000652D607FC8010E9453210E946A25DC0108
:103A6000CB018C199D09AE09BF0988159905AA05D6
:103A7000BB0598F3652D6295607FC8010E945321B4
:103A80000E946A256B017C01C615D70501F7F80174
:103A9000C082D182E282F382DF91CF911F910F9198
:103AA000FF90EF90DF90CF90BF90AF909F908F905E
:103AB0007F906F905F904F900895CF92DF92EF923A
:103AC000FF92CF93DF93FC01A085B18582858C9313
:103AD000968581E089278687C82FC170C688D788D8
:103AE000E08CF18C97859F5FD1899D1708F05FC0AE
:103AF000892F869586958695DF01A80FB11D5A9668
:103B00002C9130E0892F877002C0359527958A95D2
:103B1000E2F72170B701A601C217A9F033C0892FBF
:103B2000869586958695DF01A80FB11D5A962C9132
:103B300030E0892F877002C0359527958A95E2F786
:103B40002170C2131FC04C0D5D1D6E1D7F1D9F5F38
:103B50009D1728F388E590E2938382838481958181
:103B6000A681B781480F591F6A1F7B1F4483558365
:103B70006683778381E0DF91CF91FF90EF90DF90B4
:103B8000CF900895978784819581A681B781480F4A
:103B9000591F6A1F7B1F448355836683778381E0A7
:103BA000DF91CF91FF90EF90DF90CF900895B70114
:103BB000A601D0CFCF92DF92EF92FF920F931F9387
:103BC000CF93DF93EC01E885F9858A8580830E9495
:103BD0006A253E8521E023272E872F852F5F2F879B
:103BE000213009F45CC02530E0F40C811D812E8168
:103BF0003F814A895B896C897D89DB01CA01800F1D
:103C0000911FA21FB31F8C839D83AE83BF8381E06E
:103C1000DF91CF911F910F91FF90EF90DF90CF90A8
:103C20000895CC80DD80EE80FF80AB01BC014C1993
:103C30005D096E097F098E899F89A88DB98D481B02
:103C4000590B6A0B7B0BDB01CA010296A11DB11D4A
:103C5000B7FD34C0B595A79597958795B595A79568
:103C6000979587950A891B892C893D89800F911F1B
:103C7000A21FB31F8E8B9F8BA88FB98F2DE53DE1BF
:103C80003B832A834C0D5D1D6E1D7F1D840F951F88
:103C9000A61FB71F8C839D83AE83BF83B8CF0C81D3
:103CA0001D812E813F81AB01BC01401B510B620B7A
:103CB000730B4E8B5F8B688F798F9BCFDB01CA01B3
:103CC0000596A11DB11DC6CFEF92FF920F931F93D2
:103CD000CF93DF937C0165E07FE1FC0180810E944E
:103CE000CE25EC011E8511FF07C0DF91CF911F91FA
:103CF0000F91FF90EF900895F70104816085718521
:103D0000F4840B3008F045C0FAE0FF1508F441C018
:103D1000402F50E04A960E9484301F861173126033
:103D20001E87802F880F880F880F898BFF0CFF0C50
:103D3000FF0CF88A002349F08A8D8F738A3229F4A8
:103D40008AED9DE19B838A830CC08A899B89AC891B
:103D5000BD898E8B9F8BA88FB98F8DE59DE19B834D
:103D60008A83F8940E946A25DC01CB018058934F26
:103D7000AF4FBF4F8C839D83AE83BF83CE010E9424
:103D8000E12C7894DF91CF911F910F91FF90EF90EC
:103D9000089585E20E94302F0F931F93CF93DF93F6
:103DA0008C0165EC7BE1DC018C910E94CE25EC015D
:103DB000D8011496EC918F898E0F8F8BF8948E8595
:103DC000E817D0F48E1BF0E03F96EC0FFD1FDE01EC
:103DD0001F962FEF280F30E0205F3F4F2C0F3D1F25
:103DE00091919D93A217B307D9F78E877894DF91AD
:103DF000CF911F910F9108951E868EEF888F789432
:103E0000DF91CF911F910F9108957F928F929F9292
:103E1000AF92BF92CF92DF92EF92FF920F931F93D8
:103E2000CF93DF93EC0144E250E065E07FE18881CD
:103E30000E949F258C0178848C809D80AE80BF80FD
:103E4000CC84DD84EE84FF8461E0711001C060E009
:103E5000882D0E949B1AF80163877487858761E02B
:103E60008C2D0E943124F8016087718782878889B0
:103E70009989AA89BB89828B938BA48BB58B71108E
:103E800018C091E08C149D04AE04BF04C1F080E022
:103E9000892BF8018687DF91CF911F910F91FF90B9
:103EA000EF90DF90CF90BF90AF909F908F907F90DA
:103EB000089591E18C149D04AE04BF0441F780E2A3
:103EC000E7CF0F931F93CF93DF938C0165EC7BE1DA
:103ED000FC0180810E94CE25EC010E94AB2CF801F0
:103EE00084819581A681B7818C839D83AE83BF83B6
:103EF0004085518562857385488759876A877B87A6
:103F000080898D878C871E861F8A8EEF888F848597
:103F1000898F87FD10C0452B462B472B29F4DF9155
:103F2000CF911F910F910895CE01DF91CF911F91F5
:103F30000F910C94E12C82E20E94302FCF93DF93FB
:103F4000EC018E8585FD0DC0688579858A8541E007
:103F50000E94D41A8E85807381608E87DF91CF9105
:103F60000895E885F9858A852FB7F8949281982B72
:103F700092839181892B81832FBF8E85807381608D
:103F80008E87DF91CF910895CF93DF93FC01A385B6
:103F9000B4855C918785982F977021E030E001C04F
:103FA000220F9A95EAF7982F969596959695DF01A8
:103FB000A90FB11D5A969C915A9745854523E1F06A
:103FC000292B5A962C938F5F90898917E8F487875D
:103FD000448155816681778186899789A08DB18DCD
:103FE000840F951FA61FB71F84839583A683B7836D
:103FF00081E0DF91CF910895209529235A962C9343
:104000008F5F9089891718F3EF01CF010E949E1FDF
:104010008E8588608E8710926D0181E080934501C6
:1040200080E0DF91CF910895CF93DF93FC01A385CA
:10403000B4859C9185858923E9F08685846086878F
:10404000878591E0980F9787803408F544815581E2
:104050006681778186899789A08DB18D840F951FA0
:10406000A61FB71F84839583A683B78381E0DF9162
:10407000CF910895868582FFE3CF178684EC9FE178
:1040800093838283CF01DF91CF910C94C41FEF0102
:10409000108ACF010E949E1F8E8588608E871092A5
:1040A0006D0181E08093450180E0DF91CF9108951B
:1040B0000F931F93CF93FC01C089CC23E9F1868530
:1040C00085FD23C0178684E190E2938382838689ED
:1040D0009789A08DB18D880F991FAA1FBB1F880FCC
:1040E000991FAA1FBB1F4481558166817781840F68
:1040F000951FA61FB71F84839583A683B783C1E04E
:104100008C2FCF911F910F910895A385B48595852C
:104110002FB7F89484FF21C012968C911297892BA7
:10412000909512968C93129711968C9111979823D3
:1041300011969C932FBFC6CF8C010E949E1FF80141
:1041400086858860868710926D0181E080934501A5
:104150008C2FCF911F910F91089512968C911297E9
:1041600090958923DECFFC0192899460928B109206
:104170006D0181E08093460180E008950F931F93C5
:10418000CF93DF938C0144E450E06EEB70E2FC01CE
:1041900080810E949F25EC0183EB90E29B838A83C0
:1041A0006BE770E1F80184810E94CE259D878C87A2
:1041B000DF91CF911F910F910895CF93DF93EC0181
:1041C00044969F938F938B891F928F938F858F93A4
:1041D0008E858F931F926F9384E59DE09F938F93BD
:1041E0000E94A32A1B8A8E859F8501969F878E87B2
:1041F0008DB79EB70A960FB6F8949EBF0FBE8DBFBF
:10420000DF91CF910895FC014481558166817781CA
:10421000208580810C945E26DF92EF92FF920F93AF
:104220001F93CF93DF93EC01D88883E08D15B0F115
:104230006BE770E188810E94CE257C018AE090E0E6
:104240000E94802A8C0161E08C810E949B1AF801F7
:1042500060837183828360E088850E943124F80145
:1042600063837483858360E08C850E943124F80128
:10427000668377838087D186F7018581982F967032
:1042800081F4F7011183008382608583DF91CF91F0
:104290001F910F91FF90EF90DF9008958BE10E94A6
:1042A000302F0E94C70DCF93DF93DC011C96ED9158
:1042B000FC911D971E969C911E971F96CD91DC91A7
:1042C000509751962C9188E005C09083660F90839B
:1042D000815049F067FFF9CF288360959083660F7E
:1042E00090838150B9F7DF91CF9108950F931F9379
:1042F000CF93DF93EC0165E971E288810E94CE25BE
:104300008C016AEF0E9453216C81611105C0DF911D
:10431000CF911F910F91089548855985C801DF916C
:10432000CF911F910F910C94DD1CCF92DF92EF92F1
:10433000FF920F931F93CF93DF938C0142E150E0E4
:1043400065E971E2FC0180810E949F25EC0160E03B
:10435000F80180850E9431246C877D878E8760E01C
:10436000F80184850E9431246F87788B898B61E006
:10437000F80184810E94312468EFCE010E9453210C
:1043800060E2CE010E945321F8940E946A256B01DD
:104390007C0160E0CE010E9453210E946A2578943E
:1043A000688379838A839B83DC01CB018C199D0907
:1043B000AE09BF09F801C088D188E288F3888C155E
:1043C0009D05AE05BF0540F4C81AD90AEA0AFB0AE2
:1043D000CC82DD82EE82FF82F8010489158926896C
:1043E000378980179107A207B30740F4081B190B00
:1043F0002A0B3B0B088719872A873B87DF91CF91D0
:104400001F910F91FF90EF90DF90CF9008950F9341
:104410001F93CF93DF93EC0165E971E288810E94DD
:10442000CE258C0168EF0E9453216C81611105C07B
:10443000DF91CF911F910F91089548855985C8014B
:10444000DF91CF911F910F910C94DD1CCF92DF92E1
:10445000EF92FF920F931F93CF93DF93CDB7DEB709
:1044600029970FB6F894DEBF0FBECDBF8C01F62E94
:104470009E012F5F3F4F89E0F90111928A95E9F77C
:1044800082EF898349E061E0F801848595850E9487
:10449000C511F801A389B0E05496A00FB11F86E0C2
:1044A000FE01329601900D928A95E1F7F801838919
:1044B0008A5F838B8B3208F044C089858F778F3178
:1044C00060F0F801208931892F3FFFEF3F0729F085
:1044D0002F5F3F4FF801318B208B82508F31B0F12D
:1044E000F801828981FD0FC029960FB6F894DEBFCE
:1044F0000FBECDBFDF91CF911F910F91FF90EF9035
:10450000DF90CF900895C8010E94AB2CF8018289FA
:104510008B7F828BF8940E946A25F801C084D18435
:10452000E284F384DC01CB018C0D9D1DAE1DBF1D0B
:1045300084839583A683B783C8010E94E12C789475
:10454000D3CF6F2DC8010E94DD20B7CF10926D012F
:1045500081E080934601C8CF5F926F927F928F92E5
:104560009F92AF92BF92CF92DF92EF92FF920F9302
:104570001F93CF93DF9300D0CDB7DEB76C01FC0162
:10458000E0806EEB70E28E2D0E94CE258C01F6014C
:1045900080859185A285B385892B8A2B8B2B99F1F8
:1045A000C8010E94AB2CF60184819581A681B78158
:1045B000F80184839583A683B783F601808591856E
:1045C000A285B385F80180879187A287B38781E0B0
:1045D000828B118A108A17861686138AC8010E9458
:1045E000E12C0F900F90DF91CF911F910F91FF90D1
:1045F000EF90DF90CF90BF90AF909F908F907F9083
:104600006F905F900895C8010E94AB2CF801128A48
:104610008DE289831A820E946A25C62EB72EA82EA3
:10462000992E9E012F5F3F4F42E060E0F8018485A4
:1046300095850E94C5110E946A25862E772E682EC8
:10464000592E81E2F82E99EBD92E07C06E2DC801A4
:104650000E942622FA94FF2079F0D9821A829E01C4
:104660002F5F3F4F42E061E0F801848595850E940D
:10467000C5118A818F7351F7F8018389882321F04E
:104680006E2DC8010E94DD20F80187858F938685F5
:104690008F9381898F9380898F935F926F927F929E
:1046A0008F929F92AF92BF92CF921F92EF928EE520
:1046B0009DE09F938F930E94A32A0FB6F894DEBFCC
:1046C0000FBECDBF8ECFB0990FC0809148019091A1
:1046D000490101961092160110921501909318014C
:1046E0008093170181E0089581E086BB80914801A5
:1046F000909149010196909349018093480120E0EF
:1047000030E830931601209315019093180180939F
:10471000170181E00895CF93DF93FC018481958197
:10472000A681B7814489558966897789C58DD68DDB
:104730003881C42FC170278D232331E009F430E084
:10474000C31761F04F5F5F4F6F4F7F4F448B558BA7
:10475000668B778B808F918FA28FB38F4089518921
:1047600062897389272F481759076A072B0B27FF80
:1047700018C0248D2160248F4485558566857785F2
:10478000840F951FA61FB71F808B918BA28BB38BB5
:1047900010926D0181E08093470184819581A6810B
:1047A000B7814085518562857385840F951FA61F4B
:1047B000B71F84839583A683B78381E0DF91CF9170
:1047C00008950F931F93CF93DF938C0163E174E2FD
:1047D000FC0180810E94CE25EC010E94AB2CF801E7
:1047E00084819581A681B7818C839D83AE83BF83AD
:1047F0004085518562857385488759876A877B879D
:1048000044855585668577854C875D876E877F876C
:10481000888B998BAA8BBB8BCE01DF91CF911F9197
:104820000F910C94E12C0F931F93CF93DF93EC0126
:1048300040E250E063E174E288810E949F258C0190
:1048400068858C810E949B1AF801658F768F878F0F
:104850008BE893E293838283DF91CF911F910F9135
:104860000895803278F5E82FE695E695E695F0E034
:10487000EE0FFF1FE754F34FA591B491109711F17C
:10488000877021E030E0A90102C0440F551F8A95CE
:10489000E2F7CA013FB7F89412962C911297611172
:1048A0000FC04095242312962C93129711962C91A9
:1048B0001197282B11962C9311973FBFBD01089596
:1048C000242BF1CF8AE20E94302F1F920F920FB655
:1048D0000F9211240BB60F92EF92FF920F931F933A
:1048E0002F933F934F935F936F937F938F939F93F8
:1048F000AF93BF93CF93DF93EF93FF93C0911901D1
:10490000D0911A01EA81FB81309709F067C0E889EC
:10491000F9892A8920838E859F85019709F4B6C07D
:104920009F878E8788859985AA85BB854C815D8107
:104930006E817F81480F591F6A1F7B1F4C835D83E7
:104940006E837F8320832AA123FF0EC00C851D85E3
:10495000012E000C220B330B800F911FA21FB31FDF
:1049600088879987AA87BB87E881F98104811581A7
:1049700026813781872F401751076207830B87FDF8
:1049800066C07801F0931A01E0931901DF010190EC
:10499000F081E02D0481158126813781872F401712
:1049A00051076207830B87FFF1CFF983E883CD932B
:1049B000DC9380918400909185008E199F0997FD6A
:1049C00025C07894B29945C0F894C0911901D0914E
:1049D0001A01EA81FB81309709F499CFCE0109953C
:1049E0004C815D816E817F818111BECFE881F9812B
:1049F000E480F580F0931A01E0931901809184001E
:104A0000909185008E199F0997FFDBCF863A9F4FC3
:104A10000CF04FC0F0928900E0928800FF91EF9176
:104A2000DF91CF91BF91AF919F918F917F916F91C6
:104A30005F914F913F912F911F910F91FF90EF90B8
:104A40000F900BBE0F900FBE0F901F9018957A011C
:104A5000B0CFF89480918400909185009701281B35
:104A6000390B2038314CF4F020916D0127FF26C01E
:104A70009C01205C304E30938B0020938A0024E010
:104A800026BB909389008093880093CFCE010E942B
:104A90006716E889F9899A8990834C815D816E81D6
:104AA0007F81A2CF20914A012111DECF88E20E94AE
:104AB000302F7894B299CDCFF8947BCF9C012854B5
:104AC000344F30938B0020938A0024E026BB7C0176
:104AD000F394A0CF2FB7F894609184007091850073
:104AE0008091480190914901B09902C02FBF08956B
:104AF0002FBF7F3FE1F30196089578940E945F2DC8
:104B00002FEF260F6623C1F0FC018FEF9FEF31914D
:104B10008327082E8295807F8025092E982F8295E5
:104B20008F700826869598278927880F880F880F09
:104B30008025215060F708958FEF9FEF0895CF9360
:104B4000DF9390913201891730F5C82FD0E0CC0F58
:104B5000DD1FCC0FDD1FE0913301F0913401EC0F2C
:104B6000FD1F80819181892BB1F480913A01909150
:104B70003B01892B81F471836083CA010E94802AE2
:104B80002091330130913401C20FD31F9B838A835C
:104B9000DF91CF9108958BE00E94302F90913201E8
:104BA000891788F4E0913301F091340194E0899FF2
:104BB000E00DF11D1124808191818617970719F46A
:104BC0008281938108958CE00E94302FCF92DF92F2
:104BD000EF92FF92CF93DF93C0913A01D0913B01C6
:104BE0002097B9F121976E01E12CF12CA0913901A8
:104BF000B0E02097D9F020E030E040E050E0BA018A
:104C00008091370190913801FC01E20FF31F4F5F53
:104C10005F4F6F4F7F4F2A0F3B1F820F931F918370
:104C200080834C155D056E057F0550F3809137013B
:104C300090913801CA9FF001CB9FF00DDA9FF00DE3
:104C40001124E80FF91F1182108290934301809381
:104C50004201DF91CF91FF90EF90DF90CF900895C8
:104C6000FC0113821282118210826F3F710509F0DC
:104C70007CF480913A0190913B01892B49F4809119
:104C8000390190E08617970714F46093390108956D
:104C90000E94C10E2FB7F894809142019091430178
:104CA000009749F0FC0140815181509343014093AA
:104CB00042012FBF08958FE00E94302FCF92DF92E4
:104CC000EF92FF921F93CF93DF936A017B0161EC18
:104CD0007CE0FB019491981749F0675F7F4FFDE0FE
:104CE00069307F07B1F782E30E94302FFB013896CD
:104CF000949191FF19C030EAC3163FE5D306E10451
:104D0000F10408F081C0A8EDCA16A7E2DA06E104B2
:104D1000F10408F08AC0B7EFCB16B8E0DB06E10477
:104D2000F10488F012E010C0F8EBCF16F7E4DF06CC
:104D3000E104F10408F057C037EFC31638E0D3069A
:104D4000E104F10478F711E0FB013396A591B491E9
:104D5000FB013596C591D491FB0137963491E82F2C
:104D6000E695E695E695F0E0EE0FFF1FE754F34F6A
:104D7000459154918770E1E0F0E07F0101C0EE0CB5
:104D80008A95EAF7FB013196C590D490892F8170FE
:104D9000A038B10509F45CC0EFB7F894988197701A
:104DA00011F0191352C0188381114AC09FB7F894AB
:104DB000622F70E0E601798368839FBF9C91316028
:104DC000392B3C93DA0111969C911197E92A11969F
:104DD000EC92EFBFB601DF91CF911F91FF90EF9062
:104DE000DF90CF900895A0ECCA16AEE3DA06A1E0FA
:104DF000EA06F104D0F0C114BBEFDB06B4E0EB0629
:104E0000F10488F414E0A0CFC0E8CC16CEE7DC06AD
:104E1000C1E0EC06F10458F4D0E4CD16DFEBDD067A
:104E2000E104F10478F315E08FCF13E08DCFC114C6
:104E3000EBEFDE06E4E0EE06F10428F416E084CFA2
:104E4000E6012883BBCF17E07FCF80E30E94302F9D
:104E500081E30E94302F4F925F926F927F92BF92B8
:104E6000CF92DF92EF92FF920F931F93CF93DF9336
:104E7000FC01B08060E078E28B2D0E94CE25EC0131
:104E80004D805E806F807884C984DA84EB84FC84F2
:104E90000E946A25DC01CB0184199509A609B7098E
:104EA0008C159D05AE05BF0568F40E946A25DC01DE
:104EB000CB0184199509A609B7098C159D05AE0586
:104EC000BF0598F3CD84DE84688179818A81A091C1
:104ED0008400B09185000B811C819E01215F3F4FB2
:104EE0007901C20ED31ECE14DF0409F457C0F701B6
:104EF00091917F0128E013C0F89440918400509173
:104F00008500FB01808380837894FA01EA1BFB0B08
:104F1000E017F107D8F4990FDA01215021F397FF38
:104F2000EBCFF8944091840050918500FB01808381
:104F30007894FA01EA1BFB0BE017F10738F4990F9C
:104F4000F894FB0180837894DA01E7CF40E00E9477
:104F5000D41A0E946A256D837E838F83988780E0B0
:104F60001F928F931F92BF9285E49DE09F938F9332
:104F70000E94A32A0F900F900F900F900F900F9008
:104F8000DF91CF911F910F91FF90EF90DF90CF9025
:104F9000BF907F906F905F904F9008950E946A2518
:104FA0006D837E838F83988781E0DACF0F931F9381
:104FB000CF93DF93EC0160E078E288810E94CE25F8
:104FC0000C811D812E813F8148856C857D8517FD73
:104FD00014C050E0DA01A00FB11FEC01ED85FE8591
:104FE000EA17FB0750F0015F1F4F800F911FDF9101
:104FF000CF911F910F910C94843086E20E94302F44
:105000006F927F928F92CF92DF92EF92FF92CF9327
:10501000DF93EC0160E08C810E9431243B01882EFB
:10502000C884D984EA84FB84D7FC24C0A601415FEC
:105030005F4F60E078E288810E949F25FC016082DA
:1050400071828282D686C5868C859D859483838372
:1050500088899989AA89BB8981879287A387B48720
:10506000DF91CF91FF90EF90DF90CF908F907F9066
:105070006F90089587E20E94302FCF93DF93EC0169
:1050800063E479E288810E94CE25488559856C8148
:10509000FC018081DF91CF910C94501A2F923F92A6
:1050A0004F925F926F927F928F929F92AF92BF9238
:1050B000CF92DF92EF92FF920F931F93CF93DF93E4
:1050C00000D000D01F92CDB7DEB77C012DB73EB720
:1050D0003D832C8363E479E2DC018C910E94CE2530
:1050E0009B838A83F701F481F983D70118966D9029
:1050F0007C9019971C968D919D910D90BC91A02D3F
:1051000080FD6BC01C012D01569447943794279461
:10511000F701E088F188C22CD12CF9810F2F10E023
:10512000C8018C0D9D1D2DB73EB7281B390B0FB63E
:10513000F8943EBF0FBE2DBF8DB79EB701965C01A0
:10514000A801B3010E9484304501800E911E8401A4
:10515000222DA3016981AA81BB818C910E94C6196D
:10516000C114D10499F0CE0CDF1CF4019601D701D3
:105170008D917D018095908189238083D9019D91B6
:105180009D01892B8193CE14DF0489F76981620D1B
:10519000A501EA81FB8180810E94501AEC81FD818A
:1051A0000FB6F894FEBF0FBEEDBF0F900F900F909B
:1051B0000F900F90DF91CF911F910F91FF90EF9083
:1051C000DF90CF90BF90AF909F908F907F906F9027
:1051D0005F904F903F902F9008958FE10E94302F65
:1051E000AF92BF92CF92DF92EF92FF920F931F93F5
:1051F000CF93DF93CDB7DEB77C01ADB6BEB6FC0171
:10520000C08063E479E28C2D0E94CE25F701648191
:1052100040855185D4842DB73EB72D1931090FB67D
:10522000F8943EBF0FBE2DBFEDB7FEB731967F019C
:105230008F012D2DFC0180810E94C619FF92EF92F3
:105240001F92DF921F92CF9283E69DE09F938F93F0
:105250000E94A32A2DB73EB7285F3F4F0FB6F894A0
:105260003EBF0FBE2DBF0FB6F894BEBE0FBEADBE83
:10527000DF91CF911F910F91FF90EF90DF90CF9032
:10528000BF90AF900895EF92FF921F93CF93DF935B
:10529000EC018C85182F1F7741E050E063E479E240
:1052A00088810E949F257C018C819D81AE81BF8178
:1052B000892B8A2B8B2BF1F48091BC0082FD10C0CE
:1052C00061E081E10E94312461E080E10E943124AB
:1052D0001092B90088E48093B80084E08093BC0009
:1052E000812F880FF7018083DF91CF911F91FF906D
:1052F000EF9008958FE20E94302FCF93DF93EC015F
:1053000063E57FE088810E94CE25FC018C819D8130
:10531000AE81BF81892B8A2B8B2B51F420E0F8942E
:1053200092A19D7F922B92A37894DF91CF910895C3
:1053300022E0F5CF0F931F93CF93DF938C01EC0105
:105340006E97CE010E94AB2C1C821D821E821F8292
:105350008E899F89A88DB98D2E853F85821B930BE1
:10536000A109B109B7FD3FC0B095A0959095819571
:105370009F4FAF4FBF4F8E8B9F8BA88FB98F1F86CC
:105380001E868AA1847080628AA36B897C898D893C
:1053900040E00E94D41A4AA14470688979898A89B8
:1053A0000E94D41AD8011497ED91FC91119730976F
:1053B000A9F0409142019091430101C0F90120817F
:1053C000318140839183F0934301E09342014E2F5A
:1053D0009F2F2115310591F71D921C92DF91CF91DE
:1053E0001F910F910895B095A095909581959F4F2D
:1053F000AF4FBF4FB9CF0F931F93CF93DF938C0164
:1054000063E57FE0FC0180810E94CE25EC0166E629
:1054100075E1F80184810E94CE25BE01625E7F4F56
:105420004FB7F89428A139A1232B89F42AE939E24E
:1054300039A328A3FC01248935893F8F2E8F758BD2
:10544000648B4FBFDF91CF911F910F91089589E138
:105450000E94302FCF93DF93EC0163E57FE08881DA
:105460000E94CE25FC014C815D816E817F81F89484
:1054700086859785892B61F444835583668377837A
:1054800092A19F7C906192A37894DF91CF9108952F
:1054900086E10E94302FCF93FC01C08163E57FE05D
:1054A0008C2F0E94CE25FC01F89486899789A08DC7
:1054B000B18D26853785821B930BA109B109B7FFF2
:1054C00007C0B095A095909581959F4FAF4FBF4F66
:1054D0007894B054BF93AF939F938F931F92CF93C1
:1054E00081E89DE09F938F930E94A32A8DB79EB77A
:1054F00008960FB6F8949EBF0FBE8DBFCF9108954A
:10550000CF93DF93C0913501D0913601AE01480FA2
:10551000591F2DB73EB721503F4F22273A952417E8
:10552000350770F05093360140933501AC0160E0CF
:1055300070E0CE010E949F30CE01DF91CF9108959F
:1055400081E10E94302F2F923F925F926F927F9263
:105550008F929F92AF92BF92CF92DF92EF92FF9283
:105560000F931F93CF93DF93CDB7DEB728970FB676
:10557000F894DEBF0FBECDBF80914B018823C1F0F0
:1055800028960FB6F894DEBF0FBECDBFDF91CF9146
:105590001F910F91FF90EF90DF90CF90BF90AF9051
:1055A0009F908F907F906F905F903F902F90089585
:1055B00081E080934B018E01025E1F4F209190028B
:1055C00050908F022515C0F4452D50E0CC8CDD8C19
:1055D0003FEFC31AD30AF60184913A01680E711C99
:1055E000C3018136910554F1821B910981369105E1
:1055F00060F010924B01C4CF10928F021092900273
:1056000040E050E0512C20E0E1CF10928F026091F9
:105610009002561AE52CF12C70E0615D7D4FA701D8
:105620008FE292E00E948D301092900250928F0291
:105630008091C10080628093C100A7019A01215D21
:105640003D4F7901F601A491A63008F42BC1AA2E92
:10565000B12CF3E0AF1AB108A20EB31EEC8DFD8D94
:1056600032969491EC8DFD8D3396C590D4902D5F3C
:105670003F4F3E832D83EC8DFD8D8491D701129693
:105680008C933601690E711C78866F826F807884E6
:10569000C614D70409F435C18D809E80A814B904BE
:1056A00048F0F6018491853009F4BFC008F441C088
:1056B000883018F086E00E94302FF8012081318177
:1056C000F5016D807E80E619F709AF01FF0F660BCB
:1056D000770B49835A836B837C83A901330F660B55
:1056E000770B69807A808B809C80641675068606AD
:1056F000970608F4C8C06D807E802FEF621A720A88
:10570000AD81BE814C931801B4E02B0E311CF80121
:10571000228133818A01B901863009F4B7C0C301FF
:105720000E9484304301800E911E9E828D828101F1
:10573000A6C0823008F4AEC0833009F4D8C0F801A6
:10574000408151813A01812C912C0E5F1F4FD40171
:10575000C3018096A11DB11D80389105A105B10539
:1057600008F4C2C0A4019301305F4F4F5F4F211571
:1057700030444105510508F43FC0D401C3011896D7
:105780000097A042B10540F1A40193015C5F21158F
:1057900031054105504180F0D401C3015CE1B6956B
:1057A000A795979587955A95D1F78068AD81BE8169
:1057B0008C931196BE83AD83D401C30145E1B695A8
:1057C000A795979587954A95D1F78068AD81BE8159
:1057D0008C931196BE83AD83D401C3013EE0B69590
:1057E000A795979587953A95D1F78068AD81BE8149
:1057F0008C931196BE83AD83ED81FE813196D401E9
:10580000C30127E0B695A795979587952A95D1F777
:105810008068AD81BE818C939F012F5F3F4F3E8397
:105820002D83462D4F7740832AC098012E5F3F4F2E
:10583000F801A081B1818D819E8101966C916623D2
:1058400099F08A159B0580F4FD01319604C0A816D5
:10585000B90609F447C00196AC0141505109DA017B
:105860006C9361916111F3CFAC016D807E8046191C
:1058700057094150D3014C939E838D8389012FEFAB
:10588000C21AD20A03CFB401A30135CFC3010E94CB
:105890006E3048CFD8016D907D908D909C900C5FBC
:1058A0001F4F55CF1A2FD7011C9380911B011196C2
:1058B0008C936DEF610FC7010E948025E10EF11CF2
:1058C000F701339790833196808331968EE78083FA
:1058D000A52DA10FA0938F028091C10080628093BB
:1058E000C10087CEC501C0CFED81FE8195CFD80123
:1058F0004D915C913A01550F880899080E5F1F4F32
:1059000026CF0D811E810E191F0913E0100FCBCF7A
:1059100080E0089510926D01E9E0F1E084819581C5
:10592000A681B781AC01BD015659674E7F4F4483B4
:105930005583668377839659A74EBF4780930501A9
:1059400090930601A0930701B093080181E00895A8
:1059500084E00E94302F4FB7F894E0911901F09144
:105960001A01E817F90729F412C08217930741F0CA
:10597000F9012081318121153105B9F74FBF089513
:10598000DC018D919C91918380834FBF0895848128
:105990009581A681B7818093200190932101A093E6
:1059A0002201B09323018081918190931D01809306
:1059B0001C018CE191E090931A01809319014FBF73
:1059C0000895AF92BF92CF92DF92EF92FF921F9312
:1059D000CF93DF93DC011496CD90DD90ED90FC9099
:1059E00017971FB7F894C0911901D0911A014C81F3
:1059F0005D816E817F818F2DC416D506E606870BEB
:105A000087FD1FC0FE010990D881C02D4C815D81AA
:105A10006E817F819F2DC416D506E606970B97FFF2
:105A2000F1CF1196DC93CE93B183A0831FBFDF919A
:105A3000CF911F91FF90EF90DF90CF90BF90AF90EC
:105A400008955D010E946A252F2DC616D706E80627
:105A5000290B27FD25C081E0CC31D80741F1F501A4
:105A6000D183C083C0922001D0922101E092220113
:105A7000F0922301B0921D01A0921C018CE191E0F3
:105A800090931A0180931901809184009091850070
:105A9000C296909389008093880082E086BBC6CF2F
:105AA00080914A018111D7CF83E00E94302F8091ED
:105AB0001C0190911D01F50191838083D3CFCF9379
:105AC000DF93CDB7DEB729970FB6F894DEBF0FBED0
:105AD000CDBF81E992E09093360180933501FFB606
